:030000000202D128
:0C02D100787FE4F6D8FD75815B0203180D
:10068F00D3EF9400EE940040147D047C00ED1D70B8
:0D069F00011CED4C70F7EF1F70E61E80E3AC
:0106AC00222B
:1004BB00102200780078000C00040004000C0004EB
:0204CB00000D22
:0300080002068F5E
:1003DF008B508A518952120452FFAEF090000212D4
:1003EF00047DFDACF01207DBAB50AA51A95290006F
:1003FF000412047DFFAEF090000612047DFDACF0F8
:10040F001207F6AB50AA51A95290000812047DFFB3
:10041F00AEF090000A12047DFDACF01207EDAB5068
:10042F00AA51A95290000C12047DFFAEF090000E5D
:10043F0012047DFDACF01207E4754DFF754E00758B
:03044F004F082231
:0907DB008E328F338C348D3522EF
:0907E4008E3E8F3F8C408D4122B6
:0907ED008E368F378C388D3922CD
:0907F6008E3A8F3B8C3C8D3D22B4
:1006AD00D290854F82854E83AF33AE321204B9C2DC
:0E06BD0090854F82854E83AF35AE340204B96E
:0407A400AD07AC06EB
:1007A800AF04EDF5537D081205FF7D08AF53020530
:0107B800FF41
:050003007D080205FF6D
:1006CB00D290854F82854E83AF3FAE3E1204B9C2A6
:0E06DB0090854F82854E83AF41AE400204B938
:1006E900D290854F82854E83AF37AE361204B9C298
:0E06F90090854F82854E83AF39AE380204B92A
:10070700D290854F82854E83AF3BAE3A1204B9C271
:0E07170090854F82854E83AF3DAE3C0204B903
:0405FF008F548D5533
:10060300E4F556F556E556C395555018E55430E7CD
:100613000512070780031206E9E55425E0F55400A7
:04062300055680E117
:0106270022B0
:10075C008E508F518D521206ADAF51AE501207A470
:08076C00AF521200030206CB9C
:0805D5008E1B8F1C8D1D8B1E77
:1005DD00E4F51FF51FE51FC3951E50131206ADAFB1
:1005ED001CAE1B1207A4AF1D120003051F80E602EF
:0205FD0006CB2B
:0D04CD00011A0101140002170000011900BE
:1005180020A0062094037F0B2220A0062080037FC2
:100528000A222082037F01222087037F0222209350
:10053800037F03222094037F042220A0037F052247
:100548002086037F06222081037F07222080037FE5
:0B05580008222085037F09227F00227B
:10020D001205188F19E51A24FE601F146021146061
:10021D003314606D14700241BC2405600241C9E5C0
:10022D0019700241CC751A0241CC751A0341CCE507
:10023D00196077F514AF197515008F1675190175BD
:10024D001A04807BE51960370518E518AE177002A2
:10025D00051714D39414EE9400400D751A057519F5
:10026D0003E4F517F5188057E51965167002E515C5
:10027D006008E4F517F518751A03751901804080AB
:10028D0029E51960250518E518AE17700205171434
:10029D00D3940AEE9400400DE4F517F51875190482
:1002AD00751A05801A7519038015751A068010E4E4
:1002BD00F517F518751A017519028003E4F514AFD9
:0402CD00197E002274
:1006700075F1FF75F90075F21853FAE775F3FF7518
:0F068000FB0053F2FE43FA0153F3E743FB18224A
:0904DA0002570FC0035900000095
:1007740075865AAF018F9775960F7595C0C2AF43B2
:08078400950A75945AD2AF22C8
:10062800E4F550F55078570806E618860670010676
:1006380014F5828E83E493FFAE5074592EF8A60702
:070648000550E550B403DE8C
:01064F002288
:1007B900E4F58CF58A438901D28CC28DD2A9D2AFD6
:0107C900220D
:10078C00438910D28EC28F758DD8758BF053A9F713
:08079C0053B9F7D2ABD2AF2232
:05080900D28CD2A922EF
:05080E00C28CC2A9220A
:1004E300010A00011200010B00010F0001110001BC
:1004F3000C00010800010900011000011300020DA6
:100503000000C106C108C107C103C101C105C10281
:04051300C100C1045E
:03000B00020800E8
:09080000C28D758C00758A00326E
:03001B000205A239
:1005A200C0E0E50B6002150BE50F6002150FE50ACE
:1005B2006002150A30010DE5116004151180057500
:1005C2001101B2A4758DD8758BF0D2ABD28EC28FC9
:0305D200D0E03244
:10035D00758E7075E50575E66975865A120670120B
:10036D0007B912078C7B007A0079221203DF120085
:10037D000E75865A20031BE508700F30021775089D
:10038D0001C202D203120742800B85120C120650D5
:10039D008003120563E51324FE602404702D2001F3
:1003AD0013300410D2A40510E510D3940A4005C2F1
:1003BD00A4E4F51020A104D2A38013C2A3800FE5FD
:1003CD000B700B12001E750B028003E4F513051361
:0203DD00809FFF
:1006500030080EAD0CAF0EAE0D12075CD200D20406
:100660002220000BAD0CAF0EAE0D12075CD20022A3
:1007420012080EAF8CEFAD8AF50DEDF50E785BA6B3
:0A07520008E4FDAF0EAE0D0207250E
:1005630030033020052DD205750F0AC200E4FF12B7
:1005730007CA8E0D8F0E785BE6F508E508D3940164
:100583004003E4F508E5087007F58CF58A020809CD
:0F05930002080E300508E50F7004C203C20522EE
:10072500AB07AA06AF0274592DF8A607AF03745A92
:0D0735002DF8A6077B007A007959020774A1
:0207CA00AD0779
:0E07CC0074592DF8E6FE745A2DF8E6FDEDFF87
:0107DA0022FC
:0B000E00120628D203C205E4F50F2201
:10001E0012020DE5146403702CEF24FC6017240209
:10002E006002410C200807D206751205C200E4F5E5
:10003E0014C20821BD300802410CD206751205C249
:10004E0000D20821BDE5146402702CEF24FC601769
:10005E0024026002410C200807D206751206C20067
:10006E00C208E4F51421BD300802410CD206751207
:10007E0006C200D20821BDE5146401702CEF24FCE9
:10008E00601724026002410C200807D20675120781
:10009E00C200C208E4F51421BD300802410CD2069C
:1000AE00751207C200D20821BDE5146409702CEF49
:1000BE0024FC601724026002410C200807D206754A
:1000CE001208C200C208E4F51421BD300802410C2A
:1000DE00D206751208C200D20821BDE514B4051966
:1000EE00EF24FC601224026002410CD2067512014C
:1000FE00C200E4F51421BD8058E514B40819EF24AC
:10010E00FC601224026002410CD206751202C2007B
:10011E00E4F51421BD803AE514B40419EF24FC6013
:10012E001224026002410CD206751203C200E4F5DD
:10013E0014807C801CE514B4071CEF24FC60122490
:10014E00026002410CD206751204C200E4F514805E
:10015E005ED206D20822E51464067036EF24FC60E7
:10016E001924026002410C20080AD206751209C237
:10017E0000750A05C208E4F51422300802410CD2BB
:10018E0006E5087004D20280037512FFC200D20881
:10019E00801DE514640A701BEF24FC6006240270B7
:1001AE005D801F200858D20675120FC200D2087546
:1001BE000A0522E514640B7035EF24FC600A240254
:1001CE00703CE4F514C20822200833D206E4F50D83
:1001DE00F50EF508FDAF0EAE0D120725C202C200D8
:1001EE00E4F50C850C12D201D208750A20223006D5
:0E01FE000DE50A7009C206C208300102C201F6
:01020C0022CF
:0A0FF600FFFFFFFFFFFFF75AA5AE53
:1002DD0002035DE493A3F8E493A34003F68001F2D7
:1002ED0008DFF48029E493A3F85407240CC8C33322
:1002FD00C4540F4420C8834004F456800146F6DFF1
:10030D00E4800B01020408102040809004BBE47EC1
:10031D00019360BCA3FF543F30E509541FFEE493E5
:10032D00A360010ECF54C025E060A840B8E493A3AC
:10033D00FAE493A3F8E493A3C8C582C8CAC583CAD7
:10034D00F0A3C8C582C8CAC583CADFE9DEE780BE8F
:0105170000E3
:10045200BB010A89828A83E0F5F0A3E02250068775
:10046200F009E71922BBFE07E3F5F009E319228937
:0B047200828A83E493F5F0740193226A
:10047D00BB0110E58229F582E5833AF583E0F5F0BD
:10048D00A3E0225009E92582F886F008E622BBFE9A
:10049D000AE92582F8E2F5F008E222E5832AF583E0
:0804AD00E993F5F0A3E99322A5
:0604B5008A838982E473D2
:00000001FF
