:0300000002039E5A
:0C039E00787FE4F6D8FD7581830203E54A
:0A0FF600FFFFFFFFFFFCF65AA55EA7
:0405DD008E188F19CC
:1005E10085181A85191BD3E51B9400E51A94004060
:1005F10025751C00751D04D3E51D9400E51C9400B0
:10060100400AE51D151D7002151C80EBE51B151B2D
:060611007002151A80D0F2
:0106170022C0
:10050900102100780078000C00040004000C00049D
:02051900000DD3
:080003008E1E8F1F1205DD2285
:0808EF008E7A8F7B12000022BB
:10042A008B688A69896A12030FFFAEF075820275BA
:10043A00830012033AFDACF0120889AB68AA69A9D5
:10044A006A75820475830012033AFFAEF07582065C
:10045A0075830012033AFDACF01208C8AB68AA69AA
:10046A00A96A75820875830012033AFFAEF0758295
:10047A000A75830012033AFDACF01208B3AB68AAFE
:10048A0069A96A75820C75830012033AFFAEF0758A
:10049A00820E75830012033AFDACF012089E7BFFB0
:0B04AA007A0079038B4C8A4D894E22AA
:100889008E548F558C568D578554318555328556E2
:050899003385573422F5
:10089E008E588F598C5A8D5B85583D85593E855A99
:0508AE003F855B4022C4
:1008B3008E5C8F5D8C5E8D5F855C35855D36855E78
:0508C30037855F3822BB
:1008C8008E608F618C628D6385603985613A85623F
:0508D8003B85633C229A
:1006C900D290AB4CAA4DA94E89828A83AF32AE3102
:1006D90012039CC290AB4CAA4DA94E89828A83AF62
:0706E90034AE3312039C2222
:040820008E648F65EE
:10082400E564FF7E00F566AF65EFF5677D08AF66AA
:0A08340012069F7D08AF6712069FB1
:01083E002297
:0808F7008F7C7D0812069F2290
:1006F000D290AB4CAA4DA94E89828A83AF3EAE3DC3
:1007000012039CC290AB4CAA4DA94E89828A83AF3A
:0707100040AE3F12039C22E2
:10071700D290AB4CAA4DA94E89828A83AF36AE35AB
:1007270012039CC290AB4CAA4DA94E89828A83AF13
:0707370038AE3712039C22CB
:10073E00D290AB4CAA4DA94E89828A83AF3AAE397C
:10074E0012039CC290AB4CAA4DA94E89828A83AFEC
:07075E003CAE3B12039C229C
:04069F008F6B8D6C64
:1006A300756D00756D00E56DC3956C5018E56B3085
:1006B300E70512073E8003120717E56B25E0F56B8C
:0506C30000056D80E15F
:0106C800220F
:10083F008E6E8F6F8D701206C9AF6FAE6E1208205D
:09084F00AF701208F71206F02246
:080673008E4F8F508D518B5208
:10067B00755300755300E553C3955250131206C9B9
:10068B00AF50AE4F120820AF511208F7055380E65A
:03069B001206F054
:01069E002239
:0D051B00011701011100021400000116007B
:1005590020A0062080037F0A222082037F01222017
:1005690087037F02222093037F03222094037F04C1
:100579002220A0037F05222086037F0622208103F3
:100589007F07222080037F08222085037F09227F9D
:0205990000223E
:100238001205598F16E5171203720258010263025C
:1002480002680302830402C90502F90600000307D5
:10025800E5167002610A751702610A751703610ACB
:10026800E5166012F511AF167E008E128F13751603
:1002780001751704610A751706610AE516603D05E0
:1002880015E515AE147002051414FFD39414EE94FA
:1002980000400E7517057516037514007515008056
:1002A80061AF167E00EF65137002E51260097514E0
:1002B80000751500751703751601804675170680B9
:1002C80041E51660270515E515AE147002051414EE
:1002D800FFD3940AEE9400400E751400751500754E
:1002E8001604751705801B7516038016751706808A
:1002F80011751400751500751701751602800375C0
:070308001100AF167E002278
:1008580075F1FF75F90075F21853FAE775F3FF752E
:09086800FB0053F2FE43FA0122E9
:09052800027F0FC00381000000F6
:10078C008B718A72897375865AAB71AA72A973AF11
:10079C00018F9775960F7595C0C2AF43950A7594E6
:0407AC005AD2AF224C
:10061800757D00757D00E57DC394035020787F08C3
:1006280006E618860670010614FFF5828E83E493A9
:0D063800FFAE7D74812EF8A607057D80D9E8
:010645002292
:1008DD00758C00758A00438901D28CC28DD2A9D244
:0208ED00AF2238
:10087100438910D28EC28F758DD8758BF053A9F72D
:0808810053B9F7D2ABD2AF224C
:0508FF00D28CD2A922F9
:05090400C28CC2A92213
:10053100010A00011000010B00010F00010C000174
:100541000800010900020D0000C104C106C105C176
:0705510002C103C101C1005A
:03000B000207F6F3
:0907F600C28D758C00758A003279
:03001B000207B029
:1007B000C0E0E50B6002150BE50F6002150FE50ABE
:1007C0006002150A758DD8758BF0D2ABD28EC28FB0
:0307D000D0E03244
:1004B500758E7075E50575E66975865A12085812C8
:1004C50008DD1208717B007A00792112042A1200D6
:1004D5000E75865A20021DE5087011300119750840
:1004E50001C201D2021207D3800D800B85100C12B8
:1004F5000646800312059BE50B70D612001E750B90
:040505000280CE2280
:1006460030060CAD0CAF0EAE0D12083FD2002220C4
:10065600001AAD0CAF0EAE0D12083F0509E509D321
:0D06660094054008751000D20075090022AF
:1007D300120904AF8C7E00EF7F00FEAD8A7C00F52A
:1007E3000DEFEDF50E7883A6087D00AF0EAE0D126A
:0307F30007652275
:10059B00300233200330D203750F0AC2007F0012E2
:1005AB0008008E0D8F0E7883E6FFF508E508D394CF
:1005BB00014003750800E5087008F58CF58A1208F0
:1005CB00FF2212090422300308E50F7004C202C295
:0205DB000322F9
:100765008E748F758D76E574FF7E00AE7674812E5E
:10077500F8A607AF75AE7674822EF8A6077B007AC9
:0707850000798112078C22AC
:020800008F77F0
:1008020074812FF8E6FF7E007F00FEAD7774822DA3
:0D081200F8E6FD7C00EEF578EFEDF579FFDE
:01081F0022B6
:0B000E00120618D202C203750F002278
:10001E001202388F7EE51164037038E57E1203728A
:10002E00023701003F02023703005004000002377E
:10003E0022200607D204751005C200751100C206F3
:10004E0022223006024137D204751005C200D206B4
:10005E00222222E51164027038E57E120372023705
:10006E0001007D02023703008E04000002372220B9
:10007E000607D204751006C200C2067511002222B0
:10008E003006024137D204751006C200D206222273
:10009E0022E51164017038E57E1203720237010009
:1000AE00BB0202370300CC040000023722200607F1
:1000BE00D204751007C200C2067511002222300646
:1000CE00024137D204751007C200D206222222E561
:1000DE001164097038E57E12037202370100F902CD
:1000EE00023703010A040000023722200607D20459
:1000FE00751008C200C20675110022223006024198
:10010E0037D204751008C200D206222222E51164ED
:10011E00057029E57E12037202370101370202379C
:10012E00030143040000023722D204751001C200FD
:10013E007511002222D204D206222222E511640871
:10014E007029E57E1203720237010166020237033F
:10015E000172040000023722D204751002C200752B
:10016E0011002222D204D206222222E5116404704A
:10017E0029E57E120372023701019502023703014F
:10018E00A1040000023722D204751003C2007511BB
:10019E00002222D204D206222222E51164077029FF
:1001AE00E57E12037202370101C40202370301D049
:1001BE00040000023722D204751004C2007511002B
:1001CE002222D204D206222222E51164067036E5DE
:1001DE007E12037201EC0201FC04000002372006BD
:1001EE0007D204751010C200C20675110022200637
:1001FE0038D204E5087004D20180037510FFC200E6
:10020E00D206222222E511B40A1FE57E12037202E3
:10021E002702022B04000002377511002220060966
:09022E00D20475100FC200D206C3
:0102370022A4
:1003AA000204B5E493A3F8E493A34003F68001F2B0
:1003BA0008DFF48029E493A3F85407240CC8C33354
:1003CA00C4540F4420C8834004F456800146F6DF23
:1003DA00E4800B0102040810204080900509E47EA5
:1003EA00019360BCA3FF543F30E509541FFEE49318
:1003FA00A360010ECF54C025E060A840B8E493A3DF
:10040A00FAE493A3F8E493A3C8C582C8CAC583CA09
:10041A00F0A3C8C582C8CAC583CADFE9DEE780BEC1
:0105580000A2
:10030F00BB010A89828A83E0F5F0A3E022500687B9
:10031F00F009E71922BBFE07E3F5F009E31922897B
:0B032F00828A83E493F5F074019322AE
:10033A00BB0110E58229F582E5833AF583E0F5F001
:10034A00A3E0225009E92582F886F008E622BBFEDE
:10035A000AE92582F8E2F5F008E222E5832AF58324
:08036A00E993F5F0A3E99322E9
:10037200D083D082F8E4937012740193700DA3A31A
:1003820093F8740193F5828883E47374029368602E
:06039200EFA3A3A380DF2E
:060398008A838982E473F0
:00000001FF
