:030000000205DC1A
:0C05DC00787FE4F6D8FD7581210206232B
:070757007800EEF208EFF25A
:10075E0018E2FE08E2FF08EEF208EFF27802E2FE7F
:10076E0008E2FFD39400EE9400402E08E4F20874E1
:10077E0004F27804E2FE08E2FFD39400EE94004007
:10078E000BE224FFF218E234FFF280E67803E22453
:09079E00FFF218E234FFF280C3FF
:0107A700222F
:1006F200902B003C003C000C00040004000C0004A1
:02070200000CE9
:100BEE007806EEF208EFF218E2FE08E2FF1207575F
:010BFE0022D4
:1003D3007808EBF208EAF208E9F27808E2FB08E2AF
:1003E300FA08E2F912054DFFAEF07808E2FB08E2E5
:1003F300FA08E2F9758202758300120578FDACF004
:10040300120ADB7808E2FB08E2FA08E2F9758204D3
:10041300758300120578FFAEF07808E2FB08E2FA74
:1004230008E2F9758206758300120578FDACF012B7
:100433000B597808E2FB08E2FA08E2F975820875BD
:100443008300120578FFAEF07808E2FB08E2FA08B1
:10045300E2F975820A758300120578FDACF0120B80
:100463002F7808E2FB08E2FA08E2F975820C75833B
:1004730000120578FFAEF07808E2FB08E2FA08E222
:10048300F975820E758300120578FDACF0120B0529
:100493007BFF7A0B79EE7856EBF208EAF208E9F281
:0104A3002236
:100ADB00780BEEF208EFF208ECF208EDF2780BE28D
:100AEB00FE08E2FF783BEEF208EFF2780DE2FE082B
:0A0AFB00E2FF783DEEF208EFF22270
:100B0500780FEEF208EFF208ECF208EDF2780FE25A
:100B1500FE08E2FF7847EEF208EFF27811E2FE08F0
:0A0B2500E2FF7849EEF208EFF22239
:100B2F007813EEF208EFF208ECF208EDF27813E228
:100B3F00FE08E2FF783FEEF208EFF27815E2FE08CA
:0A0B4F00E2FF7841EEF208EFF22217
:100B59007817EEF208EFF208ECF208EDF27817E2F6
:100B6900FE08E2FF7843EEF208EFF27819E2FE0898
:0A0B7900E2FF7845EEF208EFF222E9
:1008F100D2A0783BE2FE08E2FF7856E2FB08E2FA7A
:1009010008E2F9F5828A831205DAC2A0783DE2FE97
:1009110008E2FF7856E2FB08E2FA08E2F9F5828A7A
:05092100831205DA223B
:0709F900781BEEF208EFF29B
:100A000018E2FE08E2FFEEFF7E0008F2781BE2FE2D
:100A100008E2FF781EF218E2FF7D081208BB781E7C
:070A2000E2FF7D081208BB94
:010A270022AC
:0C000E00781FEFF2E2FF7D081208BB2211
:10092600D2A07847E2FE08E2FF7856E2FB08E2FA38
:1009360008E2F9F5828A831205DAC2A07849E2FE56
:1009460008E2FF7856E2FB08E2FA08E2F9F5828A45
:05095600831205DA2206
:10095B00D2A0783FE2FE08E2FF7856E2FB08E2FA0B
:10096B0008E2F9F5828A831205DAC2A07841E2FE29
:10097B0008E2FF7856E2FB08E2FA08E2F9F5828A10
:05098B00831205DA22D1
:10099000D2A07843E2FE08E2FF7856E2FB08E2FAD2
:1009A00008E2F9F5828A831205DAC2A07845E2FEF0
:1009B00008E2FF7856E2FB08E2FA08E2F9F5828ADB
:0509C000831205DA229C
:0708BB007820EFF208EDF2D6
:1008C20008E4F2F27821E2FF08E2FEC39F501F78AB
:1008D20020E2FF30E705120990800312095B7820BD
:0E08E200E2FF25E0FFF2007822E204F280D669
:0108F00022E5
:100B83007823EEF208EFF208EDF21208F17823E28F
:100B9300FE08E2FF1209F97825E2FF12000E12099E
:020BA300262208
:0D0848007826EEF208EFF208EDF208EBF270
:1008550008E4F2F27829E2FF08E2FEC39F501B127A
:1008650008F17826E2FE08E2FF1209F97828E2FF8E
:0D08750012000E782AE204F280DA12092641
:010882002253
:0D070400815F01815900825C0000815E0070
:1007A8002093062094037F0B222093062080037F4A
:1007B8000A222082037F01222091037F02222095B2
:1007C800037F03222094037F04222093037F0522C2
:1007D8002090037F06222081037F07222080037F49
:0B07E80008222087037F09227F0022E7
:1002C4001207A8785EEFF208E2FF1205B002E70118
:1002D40002F50202FC0303260403810503B90600A8
:1002E4000003C8785EE2FF700261CC087402F26118
:1002F400CC785F7403F261CC785EE2FF601DE2FFAC
:100304007859F2785EE2FF7E00785AEEF208EFF256
:10031400785E7401F2087404F261CC785F7406F2BA
:1003240061CC785EE2FF604E785C08E2FF2401F263
:1003340018E2FE3400F2D3EF94E8EE94034011780F
:100344005F7405F2187403F2785CE4F208F28078C2
:10035400785EE2FF7E00785AE2FC08E2FDEF6D7001
:1003640001EC600B785CE4F208F2785F7403F278D5
:100374005E7401F28052785F7406F2804B785EE21C
:10038400FF602B785C08E2FF2401F218E2FE3400DF
:10039400F2D3EF9432EE9400400DE4F208F20874C4
:1003A40004F20804F28021785E7403F2801A785F04
:1003B4007406F28013785CE4F208F2785F04F218B1
:0F03C40004F280047859E4F2785EE2FF7E0022B2
:100BA50075F1FF75F90075F2FF75FA0053F3FE4311
:0F0BB500FB0153F3E743FB1843F30653FBF9220D
:0907110002080FC0030A000000F9
:100AB0007860EBF208EAF208E9F275865A7860E2AB
:100AC000FB08E2FA08E2F9FFF59775960F7595C0F5
:0B0AD000C2AF43950A75945AD2AF22C2
:1009C5007863E4F2F27863E2FFC394035025780874
:1009D5000806E618860670010614FFF5828E83E484
:1009E50093FF7863E2FE740A2EF8A6077863E204A3
:0309F500F280D2BB
:0109F80022DC
:100BDC00758C00758A00438901D28CC28DD2A9D242
:020BEC00AF2236
:100BC400438910D28EC28F758DD8758BF053A9F7D7
:080BD40053B9F7D2ABD2AF22F6
:05000300D28CD2A922FD
:050C0800C28CC2A9220C
:10071A00816D00817500816E008172008174008193
:10072A007800817700816F00816B00816C00817392
:10073A000081760082700000C107C109C108C103A7
:0C074A00C101C106C102C100C104C1050B
:03000B00020BFFE6
:090BFF00C28D758C00758A00326C
:03001B000204A438
:1004A400C0E0C0D075D000C000C007786EE2FF6025
:1004B40003E214F27872E2FF6003E214F2786DE270
:1004C400FF6003E214F230052B7878E2FF6005E266
:1004D40014F2800D78787401F2B2A4B2A318E20485
:1004E400F27877E2FFD3940A404AE4F2C205D2A438
:1004F400D2A3804020010330043A7874E2FF6005FF
:10050400E214F2800B78747401F2B2A418E204F2DB
:1005140030010F7873E2FFD394104006E4F2D2A4C2
:10052400C20130040F7873E2FFD394064006E4F26C
:10053400D2A4C204758D3C758BB0D2ABD28EC28F5F
:09054400D007D000D0D0D0E03285
:10066800758E7075E50575E66975865A120BA512C3
:100678000BDC120BC47BFE7A00792B1203D3120712
:10068800F375865A200322786BE2FF701030021C43
:1006980004F2C202D205120A578011800F7875E25F
:1006A800FF786FF2120A8480031208007876E2FF5E
:1006B8001205B006C50106D702000006E620A10B08
:1006C80020A204D2A3801BC2A38017D2A3801378D0
:1006D8006EE2FF700D12001E786EE4F280047876E8
:0A06E800E4F27876E204F280982232
:100A84003009137870E2FE08E2FF786FE2FD120B82
:100A940083D200D204222000127870E2FE08E2FF22
:0C0AA400786FE2FD120B83D200D2042216
:100A5700120C08AF8C7E00EF7F00FEAD8A7C00EFA2
:100A6700EDFF7870EEF208EFF2786BE2FF780CF6A4
:0D0A77007870E2FE08E2FF7D001208832285
:10080000300337200634D2067872740AF2C2007FB1
:1008100000120A287870EEF208EFF2780CE6FF7802
:100820006BF2E2FF6002E4F2786BE2FF7008F58C95
:10083000F58A12000322120C082230060A7872E2AE
:08084000FF7004C203C206228E
:100883007864EEF208EFF208EDF27864E2FE08E233
:10089300FFEEFF7E0008E2FE740A2EF8A6077864D6
:1008A300E2FE08E2FF08E2FE740B2EF8A6077B00C7
:0808B3007A00790A120AB02252
:040A28007867EFF20A
:100A2C00E2FF740A2FF8E6FF7E007F00FE7867E293
:100A3C00FD740B2DF8E6FD7C00EEEFEDFF7868EE13
:0A0A4C00F208EFF218E2FE08E2FFE4
:010A5600227D
:0C07F3001209C5D203C2067872E4F2229B
:10001E001202C4786AEFF27859E2FFB4032F786ABD
:10002E00E2FF1205B002C30100440202C30302C381
:10003E0004000002C322D20778757405F2C200785C
:10004E0059E4F2786D7405F222222222227859E2C6
:10005E00FFB4022F786AE2FF1205B002C301007AE4
:10006E000202C30302C304000002C322D207787542
:10007E007406F2C2007859E4F2786D7405F2222209
:10008E002222227859E2FFB4012F786AE2FF12058C
:10009E00B002C30100B00202C30302C30400000297
:1000AE00C322D20778757407F2C2007859E4F27849
:1000BE006D7405F222222222227859E2FFB4092F12
:1000CE00786AE2FF1205B002C30100E60202C30322
:1000DE0002C304000002C322D20778757408F2C26C
:1000EE00007859E4F2786D7405F2222222222278E9
:1000FE0059E2FFB4052F786AE2FF1205B002C30180
:10010E00011C0202C30302C304000002C322D20771
:10011E0078757401F2C2007859E4F2786D7405F2C4
:10012E0022222222227859E2FFB4082F786AE2FFB7
:10013E001205B002C30101520202C30302C304003E
:10014E000002C322D20778757402F2C2007859E415
:10015E00F2786D7405F222222222227859E2FFB43F
:10016E00042F786AE2FF1205B002C3010188020271
:10017E00C30302C304000002C322D20778757403BE
:10018E00F2C2007859E4F2786D7405F2222222222E
:10019E00227859E2FFB4072F786AE2FF1205B00207
:1001AE00C30101BE0202C30302C304000002C32244
:1001BE00D20778757404F2C2007859E4F2786D743F
:1001CE0005F222222222227859E2FF6406704B7831
:1001DE006AE2FF1205B001EE02020604000002C33D
:1001EE0020090ED20778757409F2C200786D740575
:1001FE00F2C2097859E4F22230090241C3D20778DB
:10020E006BE2FF7004D2028005787574FFF2C200B3
:10021E00D209786D7405F22222227859E2FF640A1F
:10022E00702E786AE2FF1205B00241020248040005
:10023E000002C37859E4F2C20922200978D2077865
:10024E0075740FF2C200D209786D7405F222222263
:10025E007859E2FF640B704B786AE2FF1205B00228
:10026E007702027E04000002C37859E4F2C209222A
:10027E00200942D2077870E4F208F2786BF27870B7
:10028E00E2FE08E2FF7D00120883C202C200786F10
:10029E00E4F2E2FF7875F2D201D209786D7420F2A1
:1002AE0022222230070F786DE2FF7009C207C209C1
:0502BE00300102C20145
:0102C3002218
:0A1FF600FFFFFFFFFFFFF75AA5AE43
:1005E800020668E493A3F8E493A34003F68001F2BB
:1005F80008DFF48029E493A3F85407240CC8C33314
:10060800C4540F4420C8834004F456800146F6DFE2
:10061800E4800B01020408102040809006F2E47E7A
:10062800019360BCA3FF543F30E509541FFEE493D7
:10063800A360010ECF54C025E060A840B8E493A39E
:10064800FAE493A3F8E493A3C8C582C8CAC583CAC9
:10065800F0A3C8C582C8CAC583CADFE9DEE780BE81
:0107560000A2
:10054D00BB010A89828A83E0F5F0A3E02250068779
:10055D00F009E71922BBFE07E3F5F009E31922893B
:0B056D00828A83E493F5F0740193226E
:10057800BB0110E58229F582E5833AF583E0F5F0C1
:10058800A3E0225009E92582F886F008E622BBFE9E
:100598000AE92582F8E2F5F008E222E5832AF583E4
:0805A800E993F5F0A3E99322A9
:1005B000D083D082F8E4937012740193700DA3A3DA
:1005C00093F8740193F5828883E4737402936860EE
:0605D000EFA3A3A380DFEE
:0605D6008A838982E473B0
:00000001FF
