:030000000208688B
:0C086800787FE4F6D8FD75817B0208AFB4
:100BA900287D323465A4A03D2024A461F7A287FFE3
:1008F400C102C103C101C100014B00013500014126
:1009040000014800013100012A00015300014000A8
:10091400013B00014900014A00012B00012E0001A6
:100924003600012100015100015000023E00000187
:1009340037000132000239000002450000024E0077
:100944000002420000022C000002250000022F00D9
:10095400000233000002220000023C0000024C00AE
:010964000092
:03000B000206509A
:10065000C0E0C0D0C3E5309526E52F95255004D2E3
:10066000928002C2920530E5307002052FC3946477
:10067000E52F9400400F852C25852D26752A0175C0
:100680002F00753000C294C2A0C2A1C2977580FF2E
:10069000E54BB40107852880D2948027E54BB4024E
:1006A00007852780D2A0801BE54BB40307852480F3
:1006B000D2A1800FE54BB40407852980D29780032F
:1006C000754B00054BE54D454C6008E54D154D70EB
:1006D00002154CE52345226008E523152370021519
:1006E00022E53660021536E53D453C6013E5507065
:1006F0000DE53D153D7002153C755080800215508A
:10070000758CFC758A18D2AFD2A9D28CD0D0D0E02B
:0107100032B6
:040A3600AB07AA065A
:100A3A007C007D64120277EF900BA993F5387C0055
:100A4A007D64AF03AE021202777E007F0ACFCDCF5C
:100A5A00CECCCE120277EF93F544AE02AF037C0000
:100A6A007D0A120277AF05EF93F547755287F52491
:090A7A008544278538288552299E
:010A83002250
:100B8F00900BB8E493F538F544F547F552854724B3
:0A0B9F008544278538288552292255
:100B5000900BB4E493F538A3E493F544A3E493F540
:100B6000477552878547248544278538288552292B
:010B70002262
:100B2D00900BB3E493F538900BB5E493F544A3E43F
:100B3D0093F5477552878547248544278538288541
:030B4D0052292208
:10057600E4F554F555758E7075E50575E669F58EE5
:1005860075865A75F9FF75FA9775FB0375D6287542
:1005960080FFC290758901758CFC758A18D2AFD21E
:1005A600A9D28C752A01F525F526F52FF530D2004E
:1005B60075865A120AB3E54864017020D29020026B
:1005C6000A2003071203108E3E8F3F2003117F057A
:1005D6001207CC8E548F5512097E80031209DA2039
:1005E600010B853E2C853F2DD201E4F52AE53670B8
:1005F60016E548B4011175366420020BAF3AAE39E0
:100606001204438E398F3AE54D454C70A3E551B43B
:100616000106AF43AE428008E5517009AF3AAE39E4
:10062600120A36801CE551B40205120B8F8012E5C2
:1006360051B40305120B508008E551B40403120BA4
:0A0646002D754C01754D900205B6AC
:10031000E4F556F5577F051207CC8E458F46E55319
:100320006401600DAD46AC45AF3AAE39120ADF8FBD
:1003300053E55314602514600F14600302043E75E6
:100340002C00752D64E48005E4F52CF52DF537754A
:10035000510185454285464302043E854556854602
:1003600057C3E53A94CCE539648094814007E5466B
:1003700024040203FCC3E53A94A4E5396480948123
:100380004006E54624078074C3E53A9486E539645F
:100390008094814006E546240B8061C3E53A945E73
:1003A000E539648094814006E546240D804EC3E51E
:1003B0003A9440E539648094814006E546241480EF
:1003C0003BC3E53A940EE539648094814006E546E6
:1003D00024178028C3E53A94FAE539648094804074
:1003E00006E546241B8015C3E53A9478E539648018
:1003F0009480E5464004241F80022421F557E4350B
:1004000045F556855642855743E52AB40112AD5746
:10041000AC56AF3AAE391207118E2C8F2DE4F52A67
:10042000E5377017AD57AC56AF3AAE39120B09E548
:1004300037B4010280057551018003E4F551AE2CFB
:02044000AF2DDE
:010442002297
:10097E00E52345227055C3EF9446EE9400501CE5D6
:10098E002B7014F553C201F53EF53FD2027551039B
:10099E00D200752B1C802E152B802AD3EF9426EEB9
:1009AE0094024019E52E7011F553F53EF53FC20144
:1009BE00D202755104D2008009152E8008C202752C
:0C09CE002B12752E047522007523C82220
:1009DA00E4F53EF53FF52CF52DD200C2027F051253
:1009EA0007CC8E458F46854542854643E551B4027C
:1009FA0002802DC3E5469464E545648094805013D3
:100A0A00C3E5469446E545648094805019755102C1
:100A1A00C29022D3E5469426E54564809482400636
:0C0A2A00C29075510222755101D2902239
:100ADF00C3EF9DFFEE9CFED3EF9414EE64809480E1
:100AEF0040057E007F0322C3EF94ECEE6480947F79
:0A0AFF007E0050037F02227F0122D7
:100B0900C3EF9DFFEE9CFEC3EF9405EE64809480D5
:100B1900500EEF94FBEE6480947F400475370122F8
:030B2900E4F537B9
:010B2C0022A6
:100AB30075865A2096130535E4F541E535B4081BD0
:100AC300E4F531F535754801220541E4F535E54195
:0C0AD300B40808753101E4F541F5482233
:040443008E568F57EB
:10044700755B9A755A997559D975583FE4F55CF5F6
:100457005D7F031207CC8E5C8F5DE55CA2E713F529
:100467005CE55D13F55DAC5CAD5DEC1201ABAB5BC0
:10047700AA5AA959A858120109E4FBFA7916784330
:100487001200151201E48E5C8F5DD3E55D94E0E503
:100497005C648094814008755C01755DE08013C3DE
:1004A700E55D9496E55C648094805006755C007504
:1004B7005D9630000AD203753C00753D10C20020DE
:1004C7000344C3E55D9557FFE55C9556FED3EF946E
:1004D70005EE648094805016C3E55D9557FFE55C93
:1004E7009556FEC3EF94FBEE6480947F507CE4F551
:1004F70053C201F53EF53FD203F551F54CF54DF5E5
:100507003C753D088064E4F553C201F53EF53FE5CF
:100517003D453C7016855C56855D57C200C2037524
:100527002B1C752E04120BB9E4803BC3E55D955770
:10053700FFE55C9556FEC3EF9402EE64809480500D
:1005470016C3E55D9557FFE55C9556FED3EF94FE20
:10055700EE6480947F5006753C00753D08855C56B7
:0E056700855D57E4F551F54CF54DAE56AF5796
:010575002263
:100B7100D3EF9400EE940040147D6E7C00ED1D7067
:0D0B8100011CED4C70F7EF1F70E61E80E3C5
:010B8E002244
:10096500021000000212000002080000020E000240
:08097500020C0001020A000A55
:0E0BB900E4F510F511F512F513F508F5092213
:080711008E588F598C5A8D5B44
:10071900E4F55CF55DF582F583851012851113C347
:10072900E559955BF511E558955AF510E511250937
:10073900F509E5103508F508D3E5099458E5086485
:100749008094824006750802750958C3E50994A882
:10075900E5086480947D50067508FD7509A8AC10FC
:10076900AD11AE0EAF0F1202658E5C8F5DAC08AD98
:1007790009AE0CAF0D1202657C007D081202CCAAED
:1007890006AB07C3E5119513FFE5109512FEAC0AF8
:10079900AD0B120265E55D2BCDE55C3ACD2FCD3E63
:1007A900FCC3648094805003E4FCFDD3ED9464ECB5
:1007B9006480948040047C007D648C838D82AE8348
:0207C900AF82FD
:0107CB00220B
:1007CC00E4F55EF55FF560F561F562F563F564F5EA
:1007DC0065F566F567EF4480F5D275D45075D5078D
:1007EC00E4F55EF55F120A84AD5FED25E02468F850
:1007FC00A60608A607ED25E02468F8E6FE08E6FF45
:10080C00C3E5659FE5649E50048E648F65D3E563F4
:10081C009FE5629E40048E628F63EF2561F561EE69
:10082C003560F560055FE55F7002055EC3940AE50F
:10083C005E940040B053D28FC3E5619563FFE560D1
:10084C009562FEC3EF9565FFEE9564FEEF7803CEDF
:0B085C00C313CE13D8F9F5678E66FFBA
:01086700226E
:100A8400E4FFFE43D2C0E5D2545070FAAFD3EF7501
:100A9400F010A4FFE5D4540F7C002FFFEC35F0FEDA
:0E0AA400EF7802CEC313CE13D8F9FF53D28FD2
:010AB2002221
:0A0FF600FFFFFFFFFFFFF75AA55EA3
:10000E00020250E86480F8E933E83360110460F0CE
:10001E00ED33EC337009E8FCE9FDEAFEEBFF220458
:10002E0060DED3EB9FEA9EE99DE8C2E78CF0C2F753
:10003E0095F0400CE8CCF8E9CDF9EACEFAEBCFFB1F
:10004E0012021B85D0F05804700320D5B3E804705B
:10005E00075002B2D502025A92D5EC0460F7E4CCF6
:10006E00C0E0C398F8603B94186008400DD0E0FBE8
:10007E00020232E4FBFAC9FC8028E830E406E4C947
:10008E00FBE4CAFCE830E305E4C9CACBFCE854073C
:10009E006010F8C3E913F9EA13FAEB13FBEC13FC47
:1000AE00D8F130F52FC3E49CFCEF9BFFEE9AFEEDEA
:1000BE0099FDD0E0FBEF4E4D4C701222DB03020295
:1000CE0057EC2CFCEF33FFEE33FEED33FDED30E756
:1000DE00EB020232EF2BFFEE3AFEED39FDD0E0FBE4
:1000EE0050130BBB000302025AED13FDEE13FEEF8D
:0800FE0013FFEC13FC020232B7
:1001060002025AEC5D046005E859047003020250CD
:1001160012021B580460F6EC4860F2EC7004FDFE17
:10012600FF22C860DB2481C85009C39860025006CC
:100136000202579850CAF582E9294B4A7005AB82EC
:1001460002024675F0007C1A7880C3EF9BEE9AEDAA
:1001560099400DC3EF9BFFEE9AFEED99FDE842F044
:10016600DC23ACF0D0E0FFD0E0FED0E0FDAB822097
:10017600E7101BEB60BAEC2CFCEF33FFEE33FEED21
:1001860033FD020232E803F830E705C0F075F000EF
:10019600EF2FFFEE33FEED33FD40B830E7C280AA05
:1001A60075F020800E75F010800575F0087D007ED4
:1001B600007F003392D530D503120302EC33401092
:1001C600EF33FFEE33FEED33FDEC33FCD5F0ED22DD
:0E01D600E5F0247EA2D513CC92E7CDCEFF2219
:1001E400EDD2E7CD33EC3392D524814006E4FFFE13
:1001F400FDFC22FCE4CFCECDCC24E0501174FF8072
:10020400EDC3CC13CCCD13CDCE13CECF13CF04700E
:07021400F030D5DE02030209
:10021B00E9D2E7C933E833F892D5EDD2E7CD33EC29
:07022B0033FC5002B2D522A2
:10023200EC30E7100FBF000C0EBE00080DBD00042D
:100242000BEB6014A2D5EB13FCED92E7FD2274FFD9
:10025200FCFDFEFF22E480F8A2D574FF13FC7D8032
:03026200E480EF46
:10087400020576E493A3F8E493A34003F68001F21F
:1008840008DFF48029E493A3F85407240CC8C33385
:10089400C4540F4420C8834004F456800146F6DF54
:1008A400E4800B01020408102040809008F4E47EE8
:1008B400019360BCA3FF543F30E509541FFEE49349
:1008C400A360010ECF54C025E060A840B8E493A310
:1008D400FAE493A3F8E493A3C8C582C8CAC583CA3B
:1008E400F0A3C8C582C8CAC583CADFE9DEE780BEF3
:01097D000079
:10026500EF8DF0A4A8F0CF8CF0A428CE8DF0A42EAD
:02027500FE2267
:10027700BC000BBE0029EF8DF084FFADF022E4CC6B
:10028700F875F008EF2FFFEE33FEEC33FCEE9DEC34
:10029700984005FCEE9DFE0FD5F0E9E4CEFD22ED7A
:1002A700F8F5F0EE8420D21CFEADF075F008EF2FC4
:1002B700FFED33FD4007985006D5F0F222C398FDB5
:0502C7000FD5F0EA2252
:1002CC00C2D5EC30E709B2D5E4C39DFDE49CFCEE4D
:1002DC0030E715B2D5E4C39FFFE49EFE120277C34C
:1002EC00E49DFDE49CFC800312027730D507C3E447
:0602FC009FFFE49EFE22BC
:0E030200C3E49FFFE49EFEE49DFDE49CFC220C
:00000001FF
