:020000040800F2
:1000000088160020950100085103000849030008E4
:100010004D03000841030008D90500080000000056
:1000200000000000000000000000000021040008A3
:1000300045030008000000001D0400082504000816
:10004000AF010008AF010008AF010008AF010008D0
:10005000AF010008AF010008AF010008AF010008C0
:1000600000000000AF010008AF010008AF01000868
:10007000AF010008AF010008AF0100080000000058
:10008000D5040008AF01000800000000AF0100081F
:10009000AF010008AF010008AF010008AF01000880
:1000A000AF010008AF010008AF01000845050008D6
:1000B000AF01000800000000000000000000000088
:1000C000AF01000800000000AF01000800F002F8D6
:1000D00000F050F814A696E8000CB244B344DA4598
:1000E00001D100F047F8BAE80F000FA696E83000FB
:1000F000A5EB040504EB0607AAEB0704A7F101072B
:100100004FEA15154FEA3414A4F10104AC4201D3AF
:1001100000F030F813F0010F18BFFB1A43F0010391
:1001200000F001F8DBE71847FC2200001C23000068
:10013000103A24BF78C878C1FAD8520724BF30C813
:1001400030C144BF04680C60704700007047000075
:100150000023002400250026103A28BF78C1FBD8D0
:10016000520728BF30C148BF0B6070471FB51FBD85
:1001700010B510BD00F031F81146FFF7F7FF01F0A0
:10018000D1FB00F04FF803B4FFF7F2FF03BC00F01F
:1001900057F800000948804709480047FEE7FEE796
:1001A000FEE7FEE7FEE7FEE7FEE7FEE7FEE7FEE727
:1001B00004480549054A064B704700002904000819
:1001C000CD0000088810002088160020881200202A
:1001D00088120020704770477047754600F02CF871
:1001E000AE4605006946534620F00700854618B024
:1001F00020B5FFF7DDFFBDE820404FF000064FF0CF
:1002000000074FF000084FF0000BAC46ACE8C00907
:10021000ACE8C009ACE8C009ACE8C00921F00701AE
:100220008D46704710B50446AFF300802046BDE808
:100230001040FFF7A8BF00000048704708000020EA
:1002400001491820ABBEFEE726000200704753EAC2
:10025000020C00F069802DE9F04B4FF00006002BF6
:100260001FBFB3FA83F503FA05F424FA05F65E40DE
:1002700012BF1643B2FA82F502FA05F4C5F1200561
:100280001EBF22FA05FC44EA0C04203556EA044C51
:100290004FEA144418BF641C4FF000084FF00009E7
:1002A000904271EB030C39D3002919BFB1FA81F7E1
:1002B00001FA07F6B0FA80F700FA07F6C7F120074F
:1002C0001EBF20FA07FC46EA0C062037B6FBF4FCFA
:1002D000A7EB0507103F07F01F0BCBF120062CFA08
:1002E00006F60CFA0BFB44BFB3460026202FA4BF32
:1002F0005E464FF0000B5BEA060C08BF4FF0010BA7
:1003000019EB0B0948EB0608ABFB027C06FB02CCA1
:100310000BFB03CCC01B71EB0C01C1E70B46024683
:1003200041464846BDE8F08B13B5084318BF4FF06F
:10033000FF300146AFF30080BDE81C40704700006D
:10034000FFE7FEE770470000FFE7FEE7FFE7FEE795
:100350007047000086B00590049100200390059836
:1003600000F0070002900298C0F10700052802D3B0
:10037000FFE7042003E00298C0F10700FFE70190C7
:1003800002980430062802D8FFE7002002E0029815
:100390000338FFE7009004980199012202FA01F165
:1003A0000139084000998840039B02FA01F10139A4
:1003B0001940084306B0704786B005900491039237
:1003C000059800F0070002900298C0F10700052888
:1003D00002D3FFE7042003E00298C0F10700FFE723
:1003E000019002980430062802D8FFE7002002E0BE
:1003F00002980338FFE7009004980199012202FA5D
:1004000001F10139084000998840039B02FA01F18B
:1004100001391940084306B07047000070470000DA
:10042000704700007047000041F20000C4F2020073
:10043000016841F001010160FFE741F20000C4F2F0
:1004400002000068C0F34000012801D0FFE7F4E794
:1004500041F20400C4F20200016821F003010160CE
:10046000FFE741F20400C4F2020000688008800740
:1004700008B1FFE7F5E741F20000C4F202000168AD
:100480004FF6FF72CFF6F2621140016041F20400B4
:10049000C4F202000021016041F22C00C4F202000B
:1004A00041F61071016041F23000C4F202004FF4D5
:1004B0008011016041F20800C4F202004FF41F01F4
:1004C00001604EF60850CEF200004FF0006101606E
:1004D0007047000080B501F0FBFB012831D1FFE738
:1004E00001F0E8FB40F67700C2F200000078012836
:1004F00026D1FFE740F67C00C2F20000017801310E
:100500000170080638B9FFE740F67C00C2F200002F
:10051000FF210170FFE740F67C00C2F20000007886
:10052000032803DBFFE700F057FAFFE740F67C0003
:10053000C2F200000078062801DBFFE7FFE7FFE7D3
:10054000FFE780BD80B582B040F67C00C2F20000BB
:100550000021017001F052FDE0B3FFE701F01EFC45
:10056000ADF8060040F67E00C2F20000B0F80408C4
:10057000B0F5806F0CDBFFE740F67E00C2F20000B2
:100580000021A0F80418A0F80018A0F8021820E034
:1005900040F67E00C2F20000B0F804180131A0F865
:1005A0000418BDF80610B0F80028531CA0F8003855
:1005B00020F81210B0F80008B0F5806F08DBFFE7F4
:1005C00040F67E00C2F200000021A0F80018FFE70C
:1005D000FFE7FFE702B080BDFFE7FEE781B08DF8DF
:1005E00003009DF9030000280FD4FFE79DF90300E5
:1005F00000F01F01012202FA01F140094EF28022AF
:10060000CEF2000242F82010FFE701B07047000070
:1006100081B08DF803009DF90300002813D4FFE793
:100620009DF9030000F01F01012202FA01F14009C7
:100630004EF28012CEF2000242F82010BFF34F8F2C
:10064000BFF36F8FFFE701B07047000081B08DF8F6
:1006500003009DF9030000280FD4FFE79DF9030074
:1006600000F01F01012202FA01F140094EF20012CE
:10067000CEF2000242F82010FFE701B07047000000
:100680004EF60C50CEF200000068C0F30220704716
:100690004EF60C50CEF200000068C0F30220704706
:1006A00082B08DF8070000919DF9070000280AD458
:1006B000FFE7009800019DF907104EF20042CEF2CC
:1006C000000288540BE0009800019DF8071001F02B
:1006D0000F014EF61452CEF200028854FFE702B02A
:1006E0007047000082B08DF8070000919DF9070067
:1006F00000280AD4FFE7009800019DF907104EF288
:100700000042CEF2000288540BE0009800019DF8F0
:10071000071001F00F014EF61452CEF20002885479
:10072000FFE702B07047000083B00290029800F02B
:10073000070000904EF60C50CEF2000001680191C7
:1007400001994FF6FF02114001910199009A41EA87
:1007500002210022C0F2FA52114301910199016075
:1007600003B0704780B582B044F20000C0F60000CC
:1007700000900098006800F16040B0F5804F2ED8DE
:10078000FFE70120C0F21C00002100F013FD0E2045
:10079000C0F21800002100F00DFD1120C0F214007D
:1007A000002100F007FD1B2001F0E8F8102001F007
:1007B000E5F81B20FFF712FF1020FFF70FFF00984E
:1007C000406840F67801C2F20001086000980068B5
:1007D0000190019880F3088808688047FFE702B01D
:1007E00080BD000080B582B00020019040F67D0001
:1007F000C2F200000078D0BBFFE740F26900C2F20D
:100800000000007802280DD1FFE740F26900C2F233
:1008100000000021017040F67D00C2F200000121BD
:10082000017023E040F26900C2F200000078042861
:1008300009D1FFE740F26900C2F200000021017017
:1008400000F002F911E040F26900C2F20000007805
:10085000032809D1FFE740F26900C2F2000000213D
:10086000017000F0B9F8FFE7FFE7FFE7B1E040F6FD
:100870007D00C2F20000007801280FD1FFE740F6AA
:100880007700C2F200000121017040F67D00C2F243
:1008900000000221017000F0D7F899E040F67D00D9
:1008A000C2F20000007802284DD1FFE740F6760042
:1008B000C2F200000078042832D1FFE740F2700055
:1008C000C2F20000D0F8010000BA0190019844F291
:1008D0000001C0F60001884218D3FFE701984FF2EB
:1008E000E071C1F6FF71096801F50031B0EB812FAD
:1008F0000CD2FFE7019800F021FE40F67600C2F22C
:1009000000000021017000F09FF808E040F676003A
:10091000C2F200000021017000F05EF8FFE711E074
:1009200040F67600C2F200000078052809D1FFE702
:1009300040F67600C2F200000021017000F04CF891
:10094000FFE7FFE743E040F67D00C2F200000078D9
:1009500003283BD1FFE740F26900C2F200000078B3
:10096000022820D1FFE740F26900C2F20000002116
:10097000017000F069F844F20700C0F6000000784A
:100980004FF00061B1EB006F05D1FFE700F030FDE3
:10099000FFF7E8FE06E040F26900C2F20000032122
:1009A0000170FFE711E040F26900C2F20000007838
:1009B000032809D1FFE740F26900C2F200000021DC
:1009C000017000F009F8FFE7FFE7FFE7FFE7FFE747
:1009D000FFE702B080BD000080B5EE2001F0EAF92B
:1009E000FFE701F00DFA08B9FFE7FAE7FF2001F091
:1009F000E1F9FFE701F004FA08B9FFE7FAE740F68A
:100A00007600C2F200000021017040F26900C2F2DB
:100A10000000017040F67D00C2F20000017040F25B
:100A20006800C2F20000017040F26C00C2F20000E7
:100A3000016040F67C00C2F20000017040F67700D1
:100A4000C2F20000017080BD80B5CC2001F0B2F987
:100A5000FFE701F0D5F908B9FFE7FAE7DD2001F07B
:100A6000A9F9FFE701F0CCF908B9FFE7FAE780BD83
:100A700080B582B040F67E00C2F20000B0F80408F3
:100A8000012805DBFFE700F02DFD8DF8070000E0F1
:100A900063E140F67D00C2F20000007800283FD1FB
:100AA000FFE740F26900C2F20000007868B9FFE792
:100AB0009DF807005A2807D1FFE740F26900C2F20B
:100AC000000001210170FFE729E040F26900C2F255
:100AD00000000078012821D1FFE79DF807000128D8
:100AE00007D1FFE740F26900C2F200000221017065
:100AF00013E09DF80700A52807D1FFE740F2690041
:100B0000C2F200000421017006E040F26900C2F266
:100B1000000003210170FFE7FFE7FFE7FFE71CE1AB
:100B200040F67D00C2F200000078022840F0D98033
:100B3000FFE740F67600C2F200000078032800F2DA
:100B4000CE80DFE800F0023456799DF807003128A6
:100B500012D1FFE740F67600C2F2000001210170D9
:100B600040F26800C2F200000021017040F26C0007
:100B7000C2F200000160FFE79DF807005A2815D176
:100B8000FFE740F26900C2F20000007868B9FFE7B1
:100B900040F26900C2F200000121017040F67D00C0
:100BA000C2F2000003210170FFE7FFE798E09DF823
:100BB000070040F26801C2F200010A7840F27003B7
:100BC000C2F200031A4450700878013008700878A7
:100BD00004280DDBFFE740F26800C2F200000021AC
:100BE000017040F67600C2F2000002210170FFE7BA
:100BF00076E09DF8070040F26C01C2F200010A683D
:100C000040F27003C2F200031A44507108680130C8
:100C100008600868B0F5006F0DD3FFE740F26C0084
:100C2000C2F200000021016040F67600C2F200002E
:100C300003210170FFE753E000208DF80600ADF8B6
:100C40000400FFE7BDF80400032814DCFFE7BDF84B
:100C5000040040F27001C2F20001084440789DF89F
:100C6000061008448DF80600FFE7BDF804000130C7
:100C7000ADF80400E6E70020ADF80400FFE7BDF89A
:100C80000400B0F5006F14DAFFE7BDF8040040F28D
:100C90007001C2F20001084440799DF80610084432
:100CA0008DF80600FFE7BDF804000130ADF8040040
:100CB000E5E79DF806009DF80710884207D1FFE799
:100CC00040F67600C2F200000421017006E040F612
:100CD0007600C2F2000005210170FFE700E0FFE7A7
:100CE0003AE040F67D00C2F200000078032832D1DD
:100CF000FFE740F26900C2F20000007868B9FFE740
:100D00009DF807005A2807D1FFE740F26900C2F2B8
:100D1000000001210170FFE71CE040F26900C2F20F
:100D200000000078012814D1FFE79DF80700022891
:100D300007D1FFE740F26900C2F200000221017012
:100D400006E040F26900C2F2000003210170FFE7F3
:100D5000FFE7FFE7FFE7FFE7FFE702B080BD000026
:100D600081B000208DF803009DF8030041F20401DA
:100D7000C4F202010A6800F00F0022F0F00242EA19
:100D80000010086001B0704781B000208DF80300AA
:100D90009DF8030041F20401C4F202010A6800F068
:100DA000070022F4E06242EA0020086001B07047C8
:100DB00081B000208DF803009DF8030041F204018A
:100DC000C4F202010A6800F0070022F4605242EA0D
:100DD000C020086001B0704781B08DF803009DF815
:100DE0000300012809D1FFE741F25400C4F20200D8
:100DF000016841F03001016008E041F25400C4F2A2
:100E00000200016821F030010160FFE701B0704786
:100E100081B08DF8030001208DF802009DF80300D9
:100E2000042843D8DFE800F0030E1D2C37009DF89E
:100E3000020041F20001C4F202010A6860F30002FC
:100E40000A6034E09DF8020041F20001C4F20201A0
:100E50000A6800F0010022F4803242EA0040086093
:100E600025E09DF8020041F20001C4F202010A6887
:100E700000F0010022F0807242EA0060086016E093
:100E80009DF8020041F22001C4F202010A6860F3F9
:100E900000020A600BE09DF8020041F22401C4F256
:100EA00002010A6860F300020A6000E0FFE701B097
:100EB0007047000080B58CB00B9000200A9009901C
:100EC000089007900690059004900390029000F01F
:100ED00001FB8DF807009DF8070030B1FFE70128FE
:100EE00024D0FFE7022828D0C1E041F25400C4F228
:100EF00002000068400AC00780B1FFE741F23000FD
:100F0000C4F202000068400EC00738B1FFE70B983A
:100F100046F60041C0F2DC21016006E00B9841F288
:100F20000021C0F27A010160FFE7A7E00B9841F2CF
:100F30000021C0F27A010160A0E041F20400C4F295
:100F400002000068C0F30040089041F22C00C4F297
:100F5000020000680021B1EBD07F47D1FFE741F2EA
:100F60000400C4F202000168C1F383410A910068E1
:100F7000C0F341700990099820B9FFE70A980F283B
:100F800007D1FFE709980A9901EB001001300A9098
:100F900003E00A9802300A90FFE7089848B9FFE793
:100FA0000A9840F60011C0F23D0148430B990860D1
:100FB0001BE041F20400C4F202000068400CC007CC
:100FC00048B1FFE70A9840F60011C0F23D014843DE
:100FD0000B99086008E00A9841F20021C0F27A01FA
:100FE00048430B990860FFE7FFE73FE041F22C0020
:100FF000C4F202000168C1F3031104910168C1F356
:1010000008210391006800F007000290089830B9A9
:10101000FFE740F60010C0F23D00059015E041F2F8
:101020000400C4F202000068400CC00730B1FFE7C2
:1010300040F60010C0F23D00059005E041F20020AE
:10104000C0F27A000590FFE7FFE705980399A0FB3F
:101050000101DDF810C0029B01229A400CFB02F254
:101060000023FFF7F4F80B990860FFE706E00B9800
:1010700041F20021C0F27A010160FFE741F2040071
:10108000C4F202000168C1F303110791079942F20B
:101090000242C0F60002515C06910B990A68069B59
:1010A000DA404A600168C1F302210791079942F2D0
:1010B000124CC0F6000C1CF8011006910B994B68FD
:1010C000069A23FA02F2CA600168C1F3C2210791AD
:1010D00007991CF8011006910B994A68069BDA40A3
:1010E0008A600168C1F30071079107990068C0F335
:1010F000813040EA81000790079842F21A41C0F619
:101100000001085C06900B988168069AB1FBF2F129
:1011100001610CB080BD000082B0019000208DF80C
:101120000300BDF8060041F20001C4F2020140587C
:10113000019901F01F01C840C00720B9FFE7002056
:101140008DF8030003E001208DF80300FFE79DF810
:10115000030002B07047000080B582B0002001900B
:101160008DF80300FFE71120FFF7D6FF00210128CB
:1011700007D0FFE701980021B0F5405F38BF01219B
:10118000FFE7C80720B1FFE7019801300190EAE7C7
:101190001120FFF7C1FF012804D0FFE700208DF8E0
:1011A000030003E001208DF80300FFE79DF8030032
:1011B00002B080BD82B001908DF803109DF803004D
:1011C00001280FD1FFE7019800F01F01012202FA68
:1011D00001F1000C41F20002C4F2020283581943EB
:1011E00081500FE0019800F01F01012202FA01F185
:1011F000000C41F20002C4F20202835823EA01010A
:101200008150FFE702B0704783B000208DF80B00DB
:101210001D218DF80A1001908DF803009DF80B0038
:10122000B0B9FFE741F20400C4F20200016821F402
:101230008031016040F60010C0F23D00019041F2A3
:101240003000C4F20200016841F00071016029E041
:1012500041F20400C4F20200016841F480310160EF
:101260009DF80B0001280ED1FFE741F20020C0F2EB
:101270007A00019041F20400C4F20200016821F4F6
:10128000003101600DE040F60010C0F23D00019019
:1012900041F20400C4F20200016841F4003101602F
:1012A000FFE7FFE7019848F26121C0F23B01884265
:1012B0000CD3FFE7019844F63F31C0F24C0188425D
:1012C00004D8FFE700208DF8030068E0019845F698
:1012D0008101C0F24F0188420CD3FFE7019845F627
:1012E0000F61C0F25F01884204D8FFE701208DF84A
:1012F000030053E0019843F29551C0F27701884210
:101300000CD3FFE7019841F60F31C0F27F0188420C
:1013100004D8FFE702208DF803003EE0019841F673
:101320001131C0F27F0188420CD3FFE701984BF6E0
:101330001F41C0F2BE01884204D8FFE703208DF8A8
:10134000030029E0019846F62931C0F2EE018842F7
:101350000CD3FFE701984DF22F71C0F23D11884286
:1013600004D8FFE704208DF8030014E001984DF243
:101370003171C0F23D1188420CD3FFE701984EF65F
:10138000D711C0F2DC11884204D8FFE705208DF8A0
:101390000300FFE7FFE7FFE7FFE7FFE7FFE79DF851
:1013A0000A0000F00F0041F20401C4F202010A68D1
:1013B00022F4701242EA804008609DF80A0000F0B2
:1013C00030000A6822F0C04242EA406008609DF89E
:1013D000030041F22C01C4F202010A6800F0070088
:1013E00022F0E06242EA0060086003B0704700004B
:1013F00041F20000C4F20200016841F00101016005
:10140000FFE741F20000C4F202000068C0F34000B0
:10141000012801D0FFE7F4E741F20400C4F2020022
:10142000016821F003010160FFE741F20400C4F20A
:10143000020000688008800708B1FFE7F5E741F285
:101440000000C4F2020001684FF6FF72CFF6F262AC
:101450001140016041F20400C4F202000021016069
:1014600041F22C00C4F2020041F61071016041F219
:101470003000C4F202004FF48011016041F2080014
:10148000C4F202004FF41F010160704781B00220D6
:101490008DF803009DF8030041F20401C4F202013B
:1014A0000A6860F301020A6000BF00BF00BF00BF0E
:1014B00000BF00BF00BF00BF00BF00BF00BF00BF34
:1014C00000BF00BF00BF00BF00BF00BF00BF00BF24
:1014D00001B0704741F20400C4F202000068C0F39A
:1014E0008100704710B582B0002000F05BFD40F62F
:1014F0007E04C2F20004B4F804080138A4F8040819
:10150000012000F04FFDB4F80208411CA4F80218B5
:1015100014F810008DF80700B4F80208B0F5806FD9
:1015200008DBFFE740F67E00C2F200000021A0F8D1
:101530000218FFE79DF8070002B010BD80B584B027
:10154000039040F27000C2F200000530029000F0FB
:10155000E7F8039800F0C0F84FF2E070C1F6FF70B2
:101560000068FF2806D8FFE7039800F5806000F0C8
:10157000B3F8FFE70020ADF80600FFE7BDF806006E
:10158000B0F5006F19DAFFE70298BDF806104218AF
:101590005278405C40EA0220ADF804000398BDF8A0
:1015A000041000F00FF8039802300390FFE7BDF835
:1015B00006000230ADF80600E0E700F023F804B0C2
:1015C00080BD000010B582B00190ADF8021003207C
:1015D0008DF8010042F21004C4F20204206840F0C9
:1015E00001002060BDF80200019908804FF48010CE
:1015F00000F046F88DF80100206820F0010020601E
:1016000002B010BD42F21000C4F20200016841F0C5
:10161000800101607047000081B003208DF8030055
:1016200042F20C00C4F202000068C00720B1FFE7DC
:1016300000208DF803001FE042F20C00C4F202000B
:1016400000688008C00720B1FFE701208DF8030083
:1016500011E042F20C00C4F2020000680009C00769
:1016600020B1FFE702208DF8030003E003208DF88E
:101670000300FFE7FFE7FFE79DF8030001B07047B5
:1016800080B582B0019003208DF80300FFF7C4FFFE
:101690008DF80300FFE79DF80310002029B9FFE74C
:1016A0000198002818BF0120FFE7C00740B1FFE7FD
:1016B000FFF7B2FF8DF80300019801380190EAE7C7
:1016C000019820B9FFE704208DF80300FFE79DF89B
:1016D000030002B080BD000010B582B0019003206D
:1016E0008DF8030042F21004C4F20204206840F0B6
:1016F00002002060019842F21401C4F20201086065
:10170000206840F0400020604FF08040FFF7B8FFB5
:101710008DF80300206820F00200206002B010BDA8
:1017200042F20400C4F2020040F22311C4F26751F5
:10173000016048F6AB11CCF6EF5101607047000034
:1017400081B043F60000C0F60000006844F638316E
:10175000C4F25411884204D1FFE701208DF8030040
:1017600003E000208DF80300FFE79DF8030001B0BF
:101770007047000081B0009000984FF6FF71016043
:1017800000980021817100980171009841710098C2
:101790000121C17101B0704783B04FF090410291B7
:1017A00001900020ADF8000001980068ADF802003B
:1017B000FFE7BDF80200012861DBFFE7BDF802008A
:1017C000C007002850D0FFE7BDF80000410003200B
:1017D00000FA01F1029A136823EA010111600199EC
:1017E0008979BDF8002052009140029A136819438C
:1017F0001160BDF80010012202FA01F1029A53684B
:1018000023EA0101516001990979BDF80020914056
:10181000029A536819435160BDF80010490000FA5C
:1018200001F1029A936823EA010191600199C97953
:10183000BDF8002052009140029A936819439160CC
:10184000BDF80010490088400299CA6822EA0000E9
:10185000C86001984079BDF800104900884002999D
:10186000CA681043C860FFE7BDF802004008ADF841
:101870000200BDF800000130ADF8000099E703B0A8
:101880007047000084B04FF0904103918DF80B0039
:1018900001208DF80A000020019000909DF80A10A8
:1018A0009DF80B2002F007029200914001919DF8F3
:1018B0000B10B0EBD10F16D0FFE79DF80B0000F036
:1018C000070080000F2101FA00F003994A6A22EA1A
:1018D000000048620398406A01990843009000980C
:1018E0000399486215E09DF80B0000F007008000A6
:1018F0000F2101FA00F003990A6A22EA0000086247
:101900000398006A019908430090009803990862BF
:10191000FFE704B07047000080B5FFF7A9F8FEF7B5
:1019200061FF80BD80B582B00020019000F0CEFC48
:1019300000F0B2FC00F05EFC00F028FD00F016FDA7
:10194000FFF7FEFE78B9FFE744F20700C0F600009B
:1019500000784FF00061B1EB006F03D1FFE7FEF7B5
:1019600001FFFFE7FFE7FFF7EBFE18B1FFE7FFF727
:101970006BF8FFE7FFE7FFF7CFFFFCE780B582B02A
:101980008DF807009DF90700FEF742FE02B080BD0A
:1019900080B584B08DF80F00029100200190009076
:1019A000FEF776FE0299019AFEF706FD00909DF97A
:1019B0000F000099FEF796FE9DF90F00FEF746FE18
:1019C00004B080BD80B582B003208DF807009DF87B
:1019D0000700FEF7A9FE02B080BD000080B58AB006
:1019E00000200990089007900690059004900390BD
:1019F00002900190FFF76EFD8DF803009DF8030043
:101A000030B1FFE701282AD0FFE7022831D0D6E025
:101A100041F25400C4F202000068400AC00798B1C5
:101A2000FFE741F23000C4F202000068400EC00738
:101A300050B1FFE740F20000C2F2000046F600415C
:101A4000C0F2DC21016009E040F20000C2F20000B7
:101A500041F20021C0F27A010160FFE7B9E040F2F3
:101A60000000C2F2000041F20021C0F27A010160E0
:101A7000AFE041F20400C4F202000068C0F300408D
:101A8000079041F22C00C4F2020000680021B1EB83
:101A9000D07F50D1FFE741F20400C4F20200016898
:101AA000C1F3834109910068C0F341700890089820
:101AB00020B9FFE709980F2807D1FFE7089809998F
:101AC00001EB00100130099003E009980230099001
:101AD000FFE7079860B9FFE7099840F60011C0F2E8
:101AE0003D01484340F20001C2F20001086021E0DC
:101AF00041F20400C4F202000068400CC00760B16B
:101B0000FFE7099840F60011C0F23D01484340F25A
:101B10000001C2F2000108600BE0099841F20021C7
:101B2000C0F27A01484340F20001C2F200010860AD
:101B3000FFE7FFE742E041F22C00C4F20200016837
:101B4000C1F3031103910168C1F3082102910068F8
:101B500000F007000190079830B9FFE740F6001049
:101B6000C0F23D00049015E041F20400C4F202000E
:101B70000068400CC00730B1FFE740F60010C0F22B
:101B80003D00049005E041F20020C0F27A0004908C
:101B9000FFE7FFE704980299A0FB0101DDF80CC004
:101BA000019B01229A400CFB02F20023FEF74FFB3F
:101BB00040F20001C2F200010860FFE709E040F2D4
:101BC0000000C2F2000041F20021C0F27A0101607F
:101BD000FFE741F20400C4F202000068C0F3031002
:101BE0000690069842F20241C0F60001085C05909A
:101BF00040F20000C2F200000168059AD140016085
:101C00000AB080BD83B040F20040C4F200000290F0
:101C100042F21070019042F6DF6000900198029944
:101C2000C8620098029988620298416941F00101F6
:101C3000416103B07047000082B040F20040C4F23E
:101C40000000019000208DF803009DF80300019929
:101C50000A6800F0030022F4407242EA00200860A3
:101C600002B0704782B040F20040C4F20000019020
:101C700000208DF803009DF8030001990A6800F028
:101C8000070022F0700242EA0010086002B07047BC
:101C900082B040F20040C4F20000019001208DF8B3
:101CA00003009DF8030001990A6860F300020A60CE
:101CB00002B0704782B040F20040C4F200000190D0
:101CC000012000900098C0430199086102B070475C
:101CD00083B040F20040C4F2000002900120019065
:101CE00000208DF8030002980069019908420AD08B
:101CF000FFE70298C0680199084204D0FFE701207D
:101D00008DF8030003E000208DF80300FFE79DF845
:101D1000030003B07047000082B040F20040C4F2FC
:101D20000000019000208DF803009DF80300019948
:101D30000A6800F0010022F0800242EAC010086048
:101D400002B0704782B040F20040C4F2000001903F
:101D500000208DF803009DF8030001994A6800F007
:101D6000070022F0700242EA0010486002B070479B
:101D700082B040F20040C4F20000019000208DF8D3
:101D800003009DF8030001998A6800F0010022F029
:101D9000800242EAC010886002B0704781B043F60A
:101DA0000000C4F2010000900098406880B201B0C9
:101DB0007047000082B043F60001C4F201010191B6
:101DC000ADF80200BDF802006FF35F200199486092
:101DD00002B0704782B043F60000C4F201000190E7
:101DE00001208DF803009DF803000199CA6800F0F6
:101DF000010022F4005242EA4030C86002B070474D
:101E000083B043F60000C4F201000190402000902E
:101E1000019800680099084204D0FFE701208DF87E
:101E20000B0003E000208DF80B00FFE79DF80B008E
:101E300003B0704782B043F60000C4F20100019085
:101E400000208DF803009DF8030058B9FFE70198C2
:101E5000416921F4807141610198416921F4007167
:101E6000416132E09DF8030001280BD1FFE70198A2
:101E7000416941F4807141610198416921F4007127
:101E8000416121E09DF8030002280BD1FFE7019892
:101E9000416921F4807141610198416941F4007107
:101EA000416110E09DF8030003280BD1FFE7019882
:101EB000416941F4807141610198416941F40071C7
:101EC0004161FFE7FFE7FFE7FFE702B0704700006F
:101ED00010B58AB043F60004C4F2010409944FF42B
:101EE000E130089000208DF81F008DF81E0002A838
:101EF000FEF7E0FF0998A04203D1FFE704980190A4
:101F000002E005980190FFE7019800EB8000400097
:101F10000899B0FBF1F0009000984CF6CD41CCF65A
:101F2000CC41A0FB0112D10801EB8101A0EB4100E3
:101F300004280AD8FFE700984CF6CD41CCF6CC41F6
:101F4000A0FB0101C80800900BE000984CF6CD41C1
:101F5000CCF6CC41A0FB0101012000EBD1000090A8
:101F6000FFE7BDF8000009998A684FF6FF739A43AE
:101F7000104488609DF81F000999CA6800F00100AC
:101F800022F4805242EA0030C8609DF81E00099990
:101F90000A6900F0030022F4405242EA003008616E
:101FA0000AB010BD83B043F60001C4F201010291F2
:101FB0000521C0F20C0101918DF803009DF803008A
:101FC00001280CD1FFE7019800F01F01012202FA5D
:101FD00001F1029A000C1358194311500CE00198BA
:101FE00000F01F01012202FA01F1029A000C1358BD
:101FF00023EA01011150FFE703B0704784B043F6B4
:102000000000C4F2010002902020019000208DF811
:102010000300019801285FD0FFE7022855D0FFE7B1
:10202000042852D0FFE7082837D0FFE7102845D012
:10203000FFE720282AD0FFE7402820D0FFE78028AC
:1020400016D0FFE7B0F5807F0BD0FFE7B0F5007F3B
:1020500049D1FFE702984069C0F380208DF8030062
:1020600045E002980069C0F380108DF803003EE05F
:102070000298C068C0F3C0108DF8030037E00298E2
:10208000C068C0F380108DF8030030E00298C0688B
:10209000C0F340108DF8030029E00298C0684109A0
:1020A0000120C90729B9FFE70298406900F0010043
:1020B000FFE700F001008DF8030018E00298C06807
:1020C000C0F300108DF8030011E00298406900F0A1
:1020D00001008DF803000AE00298C068C0F30020F8
:1020E0008DF8030003E000208DF80300FFE79DF862
:1020F0000300012804D0FFE700208DF80F000DE059
:10210000029800680199084204D0FFE701208DF889
:102110000F0003E000208DF80F00FFE79DF80F008F
:1021200004B0704782B043F60000C4F20100019091
:1021300000208DF803009DF8030058B9FFE70198CF
:10214000C16821F40071C1600198C16821F4806107
:10215000C16021E09DF8030001280BD1FFE7019841
:10216000C16821F40071C1600198C16841F48061C7
:10217000C16010E09DF8030002280BD1FFE7019831
:10218000C16841F40071C1600198C16841F4806187
:10219000C160FFE7FFE7FFE702B0704782B043F698
:1021A0000000C4F20100019001208DF803009DF8A9
:1021B00003000199CA6800F0010022F0040242EA1B
:1021C0008000C86002B0704782B043F60000C4F2DD
:1021D0000100019001208DF803009DF80300019992
:1021E000CA6800F0010022F0080242EAC000C8609C
:1021F00002B0704780B5FFF7E5FBFEF741FA00211A
:10220000FEF7A8F801466FF00B00FEF749FAFEF75B
:1022100037FA0021FEF79EF801466FF00A00FEF73C
:102220003FFAFEF72DFA0021FEF794F801466FF011
:102230000900FEF735FAFEF723FA0021FEF78AF8C7
:1022400001466FF00400FEF72BFAFEF719FA0021A1
:10225000FEF780F801466FF00300FEF721FAFEF763
:102260000FFA0021FEF776F801466FF00100FEF745
:1022700017FAFEF705FA0F21FEF76CF801464FF04A
:10228000FF30FEF70DFA10200121FFF781FB1B2024
:102290000021FFF77DFB80BD80B51120C0F2140046
:1022A0000121FEF787FF1620C0F214000121FEF77E
:1022B00081FF0E20C0F218000121FEF77BFF0120F4
:1022C000C0F21C000121FEF775FF80BD80B5FFF74D
:1022D0008FF842F20000C4F2020040F25311016094
:1022E0000420FEF795FDFFE70120C0F22400FEF771
:1022F00013FF012801D0FFE7F6E70120FEF788FD74
:10230000FFE7FEF729FF08B9FFE7FAE70020FEF72D
:102310007FFDFFE70120FEF7FFFE012801D0FFE768
:10232000F8E7FEF771FF0220FEF772FDFFE71920C4
:10233000FEF7F2FE012801D0FFE7F8E7FEF710FDF7
:10234000FEF736FDFEF720FD0120FEF745FDFFF705
:102350009DF8FFE7FFF7BEF8022801D0FFE7F9E795
:102360000020FEF739FDFFF739FB80BD80B5FFF790
:1023700079FCFFF761FCFFF7CFFCFFF743FCFFF7A9
:10238000F7FCFFF7DFFCFFF783FC80BD70B582B080
:102390006C462046FFF7EEF90920FFF773FA022595
:1023A0008DF8075000268DF804608DF806504FF424
:1023B000007000908DF805602046FFF7EDF90A20C7
:1023C000FFF760FA8DF807508DF804608DF806501D
:1023D0004FF4806000908DF805602046FFF7DCF92F
:1023E000FFF776FDFFF7F0FEFFF7D8FEFFF79AFE46
:1023F000FFF720FDFFF7EEFC0120FFF7D3FD02B051
:1024000070BD000000000000000001020304060788
:102410000809000000000102030402040608020C7F
:1024200008100000482400080000002008000000F8
:102430003001000850240008080000208016000029
:10244000500100080000000000127A0000000000A7
:04000005080000CD22
:00000001FF
