:020000040800F2
:10000000F0040020E10000089905000891050008AF
:1000100095050008D5010008C10A0008000000008D
:100020000000000000000000000000006906000859
:10003000D901000800000000650600086D060008F0
:10004000FB000008FB000008FB000008FB000008A4
:10005000FB000008FB000008FB000008FB00000894
:1000600000000000FB000008FB000008FB00000887
:10007000FB000008FB000008FB0000080000000077
:100080002D070008FB00000800000000FB0000082E
:10009000FB000008FB000008FB000008FB00000854
:1000A000FB000008FB000008FB000008A90900088D
:1000B000150A000800000000000000000000000019
:1000C000FB00000800000000FB000008DFF80CD077
:1000D00000F018F800480047591E0008F0040020FE
:1000E0000648804706480047FEE7FEE7FEE7FEE7D2
:1000F000FEE7FEE7FEE7FEE7FEE7FEE78106000813
:10010000CD0000081CB5094800900948019005463B
:10011000009C06E0E06840F0010394E8070098477F
:100120001034AC42F6D3FFF7D5FF0000503500087D
:10013000703500082DE9F05F0546002092469B4689
:1001400088460646814640241BE0284641464746ED
:10015000224600F02FF853465A46C01A914110D358
:1001600011461846224600F016F82D1A67EB0108D2
:100170004F4622460120002100F00DF817EB000940
:100180004E41201EA4F10104DFDC484631462A46D8
:100190004346BDE8F09F202A04DB203A00FA02F132
:1001A000002070479140C2F1200320FA03F3194365
:1001B00090407047202A04DB203A21FA02F0002107
:1001C000704721FA02F3D040C2F120029140084367
:1001D00019467047FFE7FEE77047000081B040F224
:1001E000B600C2F200000090009800214170009813
:1001F00041800098017100984171009881710098C8
:100200004172009881720098C17200980173009841
:10021000C17101B070470000B0B540F21C00C2F2DD
:100220000000007840B1FFE7012800F00481FFE7FB
:10023000022800F07581AAE140F21400C2F2000029
:100240000078002840F0EF80FFE74FF20000C0F692
:10025000000001F053FA4FF6FF71884253D0FFE7D8
:100260004FF20040C0F6000001F048FA4FF6FF716F
:10027000884248D0FFE74FF20400C0F6000001F0CA
:1002800077FC40F21004C2F2000420804FF20440D8
:10029000C0F6000001F06CFC40F21201C2F2000155
:1002A000088020880988884216DDFFE74FF20000A9
:1002B000C0F6000001F05CFC40F2B604C2F200049B
:1002C00060804FF20200C0F6000001F051FC0028EF
:1002D00018BF0120607015E04FF20040C0F600002A
:1002E00001F046FC40F2B604C2F2000460804FF216
:1002F0000240C0F6000001F03BFC002818BF0120BE
:100300006070FFE74BE04FF20000C0F6000001F024
:10031000F5F94FF6FF71884216D0FFE74FF2000063
:10032000C0F6000001F024FC40F2B604C2F2000462
:1003300060804FF20200C0F6000001F019FC0028B6
:1003400018BF0120607029E04FF20040C0F60000A5
:1003500001F0D4F94FF6FF71884216D0FFE74FF253
:100360000040C0F6000001F003FC40F2B604C2F207
:10037000000460804FF20240C0F6000001F0F8FB7C
:10038000002818BF0120607007E040F2B600C2F2FA
:100390000000002141804170FFE7FFE7FFE740F2E6
:1003A000B600C2F2000040884FF6FE71884201DCC0
:1003B000FFE706E040F2B600C2F2000000214180F3
:1003C000FFE740F2B600C2F20000407800F0010002
:1003D00001280FD0FFE740F2B600C2F200004078DB
:1003E000C00738B1FFE740F2B600C2F200000021BA
:1003F0004170FFE740F2B600C2F20000418840F2CF
:100400001A02C2F200021180407800F0010040F2AE
:100410001801C2F20001087040F21400C2F200009C
:100420000121017006E040F21C00C2F2000001212F
:100430000170ACE0ABE040F21A00C2F200000088AC
:1004400040F2B601C2F200014988884211D1FFE7AB
:1004500040F21800C2F20000007800F0010040F203
:10046000B601C2F20001497801F00101884256D07C
:10047000FFE701F06DFB40F21500C2F200000078CA
:10048000C007C8B1FFE74FF20004C0F600042046E1
:1004900001F036FB40F2B605C2F20005698820463D
:1004A00001F0A4FA687800F001014FF20200C0F6F2
:1004B000000001F09BFA18E04FF20044C0F600047F
:1004C000204601F01DFB40F2B605C2F20005698826
:1004D000204601F08BFA687800F001014FF20240EB
:1004E000C0F6000001F082FAFFE740F2B600C2F267
:1004F0000000418840F21A02C2F2000211804078E6
:1005000000F0010040F21801C2F20001087040F250
:100510001C00C2F2000001780131017037E036E0C2
:1005200040F21500C2F200000078C00760B1FFE79A
:1005300040F21600C2F2000001884FF20400C0F63B
:10054000000001F053FA0BE040F21600C2F2000086
:1005500001884FF20440C0F6000001F047FAFFE7BF
:1005600001F064FA40F21600C2F200000188013185
:10057000018040F21500C2F20000017801310170E3
:1005800040F21C00C2F2000001210170FFE7B0BD83
:10059000FFE7FEE7FFE7FEE77047000086B0059043
:1005A000049100200390059800F007000290029843
:1005B000C0F10700052802D3FFE7042003E00298FA
:1005C000C0F10700FFE7019002980430062802D826
:1005D000FFE7002002E002980338FFE7009004984C
:1005E0000199012202FA01F101390840009988407D
:1005F000039B02FA01F101391940084306B0704724
:1006000086B0059004910392059800F007000290CF
:100610000298C0F10700052802D3FFE7042003E099
:100620000298C0F10700FFE7019002980430062805
:1006300002D8FFE7002002E002980338FFE70090AD
:1006400004980199012202FA01F101390840009948
:100650008840039B02FA01F101391940084306B0B2
:1006600070470000704700007047000080B502F03E
:1006700043FE40F2CC00C2F200000068804780BD1B
:1006800041F20000C4F20200016841F00101016082
:10069000FFE741F20000C4F202000068C0F340002E
:1006A000012801D0FFE7F4E741F20400C4F20200A0
:1006B000016821F003010160FFE741F20400C4F288
:1006C000020000688008800708B1FFE7F5E741F203
:1006D0000000C4F2020001684FF6FF72CFF6F2622A
:1006E0001140016041F20400C4F2020000210160E7
:1006F00041F22C00C4F2020041F61071016041F297
:100700003000C4F202004FF48011016041F2080091
:10071000C4F202004FF41F0101604EF60850CEF201
:1007200000004FF0006101607047000080B582B0AA
:1007300001F0D6FA8DF8070001F028FE01F0ACFDBB
:1007400040F22801C2F20001088001F011FE40F2DF
:10075000C400C2F200000078DFE800F0030A1D5078
:10076000CAF140F2C400C2F200000121017018E198
:100770009DF8070038B9FFE740F2C400C2F200005C
:100780000221017006E040F2C400C2F20000012123
:100790000170FFE705E19DF80700012826D1FFE77A
:1007A00040F22800C2F20000008847F2305188422F
:1007B0001CDBFFE740F22800C2F2000000884AF28A
:1007C0001041884212DCFFE740F21E00C2F2000036
:1007D0000021018040F22000C2F20000016040F2DE
:1007E000C400C2F200000321017006E040F2C40020
:1007F000C2F2000001210170FFE7D2E09DF807007E
:1008000000286DD1FFE740F22000C2F2000001682D
:100810004900016040F22800C2F20000008841F661
:10082000F421884218DBFFE740F22800C2F2000002
:10083000008841F6A47188420EDCFFE740F22000F8
:10084000C2F2000001680131016040F2C400C2F24E
:1008500000000421017021E040F22800C2F20000F3
:100860000088B0F5E16F11DBFFE740F22800C2F22B
:100870000000008840F6B831884207DCFFE740F20C
:10088000C400C2F200000521017006E040F2C4007D
:10089000C2F2000001210170FFE7FFE740F21E00F5
:1008A000C2F200000188013101800088182816DB9F
:1008B000FFE740F22000C2F20000418840F224022B
:1008C000C2F2000211700168090A5170006890704C
:1008D00040F2C400C2F2000001210170FFE706E00F
:1008E00040F2C400C2F2000001210170FFE758E0AD
:1008F0009DF8070001281AD1FFE740F22800C2F254
:1009000000000088B0F5E16F11DBFFE740F228003E
:10091000C2F20000008840F6B831884207DCFFE7E9
:1009200040F2C400C2F200000321017006E040F270
:10093000C400C2F2000001210170FFE731E09DF820
:100940000700012825D1FFE740F22800C2F200008D
:10095000008841F6F42188421BDBFFE740F22800C3
:10096000C2F20000008841F6F421884211DBFFE763
:1009700040F22800C2F20000008841F6A4718842CB
:1009800007DCFFE740F2C400C2F20000032101705F
:1009900006E040F2C400C2F2000001210170FFE74E
:1009A000FFE702B080BD000080B543F60C00C4F242
:1009B000010000684009C00758B3FFE743F6000094
:1009C000C4F2010002F0F6F910B3FFE743F60000AD
:1009D000C4F2010002F0B8F840F2E400C2F20000F4
:1009E0000178013101700078142810DBFFE740F234
:1009F000E400C2F200000021017043F60000C4F2DE
:100A000001000521C0F20C0102F0C8F8FFE7FFE782
:100A1000FFE780BD80B544F20040C4F2000002F060
:100A2000C9F900284AD0FFE744F20040C4F20000B0
:100A300002F08AF840F2EE01C2F200010A78531C7B
:100A40000B7040F2E603C2F2000323F812000878AC
:100A5000042832DBFFE740F2E600C2F20000018822
:100A600040F20802C2F200021180418840F20A02FC
:100A7000C2F200021180818840F20C02C2F2000230
:100A80001180C08840F20E01C2F20001088040F2DD
:100A9000EE00C2F200000021017044F20040C4F2F6
:100AA00000000521C0F20C0102F078F840F21D00B0
:100AB000C2F2000001210170FFE7FFE780BD0000E6
:100AC000FFE7FEE781B08DF803009DF903000028E1
:100AD0000FD4FFE79DF9030000F01F01012202FA85
:100AE00001F140094EF20012CEF2000242F820104D
:100AF000FFE701B0704700004EF60C50CEF2000048
:100B00000068C0F3022070474EF60C50CEF2000091
:100B10000068C0F30220704782B08DF80700009192
:100B20009DF9070000280AD4FFE7009800019DF90D
:100B300007104EF20042CEF2000288540BE00098FB
:100B400000019DF8071001F00F014EF61452CEF28D
:100B500000028854FFE702B07047000082B08DF8B1
:100B6000070000919DF9070000280AD4FFE70098CC
:100B700000019DF907104EF20042CEF200028854A7
:100B80000BE0009800019DF8071001F00F014EF6F0
:100B90001452CEF200028854FFE702B07047000002
:100BA00083B00290029800F0070000904EF60C50BF
:100BB000CEF200000168019101994FF6FF02114049
:100BC00001910199009A41EA02210022C0F2FA52F1
:100BD000114301910199016003B07047B0B58EB027
:100BE00000200790069040F20E00C2F2000000883C
:100BF000002800F06581FFE740F21D00C2F200000E
:100C00000078012840F05C81FFE740F20800C2F262
:100C100000000088002840F0A180FFE740F20A00B1
:100C2000C2F200000088002840F09880FFE740F200
:100C30000E00C2F20000008801380B2800F28C8000
:100C4000DFE800F006111C27323D48535E69747FCF
:100C500000208DF82D008DF82E008DF82F0001203A
:100C60008DF8300079E000208DF82D008DF82E00F1
:100C70008DF82F0002208DF830006EE000208DF8F6
:100C80002D008DF82E008DF82F0003208DF83000F8
:100C900063E000208DF82D008DF82E008DF82F00D8
:100CA00004208DF8300058E000208DF82D008DF8DC
:100CB0002E008DF82F0005208DF830004DE000202B
:100CC0008DF82D008DF82E008DF82F0006208DF860
:100CD000300042E000208DF82D008DF82E008DF8B8
:100CE0002F0007208DF8300037E000208DF82D0010
:100CF0008DF82E008DF82F0008208DF830002CE0A4
:100D000000208DF82D008DF82E008DF82F00092081
:100D10008DF8300021E000208DF82D008DF82E0098
:100D20008DF82F000A208DF8300016E000208DF895
:100D30002D008DF82E008DF82F000B208DF830003F
:100D40000BE000208DF82D008DF82E008DF82F007F
:100D50000C208DF8300000E0FFE743E040F208008F
:100D6000C2F200000088012819D1FFE701208DF8A8
:100D70002D0040F20A00C2F2000000788DF82E002B
:100D800040F20C00C2F2000000788DF82F0040F213
:100D90000E00C2F2000000788DF8300021E040F231
:100DA0000800C2F200000088022819D1FFE70220E3
:100DB0008DF82D0040F20A00C2F2000000788DF894
:100DC0002E0040F20C00C2F2000000788DF82F00D7
:100DD00040F20E00C2F2000000788DF83000FFE70C
:100DE000FFE7FFE740F20800C2F2000000240480A1
:100DF00040F20A00C2F20000048040F20C00C2F28D
:100E00000000048040F20E00C2F200000480D120F5
:100E10008DF8220001208DF8230006208DF8240093
:100E20008DF825408DF826008DF827400A258DF88D
:100E300028508DF829408DF82A408DF82B408DF8E8
:100E40002C408DF831408DF83240F0208DF837007D
:100E5000DDF8230000BA0290DDF8270000BA039005
:100E6000DDF82B0000BA04909DF82F009DF830109B
:100E7000000640EA0140059002A800F027F8019022
:100E800000F046F89DF807008DF83300BDF8060025
:100E90008DF834000198000A8DF8350001988DF81E
:100EA000360040F2B600C2F20000C57140F21D00EB
:100EB000C2F2000004700DF1220001F027FEFFE7EE
:100EC0000EB0B0BD80B5FFF789FE80BD83B0029043
:100ED00004200190002000900090FFE70098019905
:100EE00088420ED2FFE70298009950F8210043F2A1
:100EF0000001C4F202010860FFE700980130009091
:100F0000ECE743F20000C4F20200006803B070474F
:100F100043F20800C4F20200016841F001010160DF
:100F20007047000081B04FF0FF300090009843F20E
:100F30001001C4F20201086001B0704781B00020C6
:100F40008DF803009DF8030043F20801C4F202018A
:100F50000A6800F0030022F0180242EAC0000860AC
:100F600001B0704781B041F6B750C0F2C140009067
:100F7000009843F21401C4F20201086001B0704706
:100F800081B000208DF803009DF8030043F20801B2
:100F9000C4F202010A6800F0030022F0600242EA93
:100FA0004010086001B0704781B000208DF8030048
:100FB0009DF8030043F20801C4F202010A6800F040
:100FC000010022F0800242EAC010086001B07047C0
:100FD00081B000208DF803009DF8030041F2040168
:100FE000C4F202010A6800F00F0022F0F00242EAA7
:100FF0000010086001B0704781B000208DF8030038
:101000009DF8030041F20401C4F202010A6800F0F5
:10101000070022F4E06242EA0020086001B0704755
:1010200081B000208DF803009DF8030041F2040117
:10103000C4F202010A6800F0070022F4605242EA9A
:10104000C020086001B0704781B08DF803009DF8A2
:101050000300012809D1FFE741F25400C4F2020065
:10106000016841F03001016008E041F25400C4F22F
:101070000200016821F030010160FFE701B0704714
:1010800081B08DF8030001208DF802009DF8030067
:10109000042843D8DFE800F0030E1D2C37009DF82C
:1010A000020041F20001C4F202010A6860F300028A
:1010B0000A6034E09DF8020041F20001C4F202012E
:1010C0000A6800F0010022F4803242EA0040086021
:1010D00025E09DF8020041F20001C4F202010A6815
:1010E00000F0010022F0807242EA0060086016E021
:1010F0009DF8020041F22001C4F202010A6860F387
:1011000000020A600BE09DF8020041F22401C4F2E3
:1011100002010A6860F300020A6000E0FFE701B024
:101120007047000080B58CB00B9000200A900990A9
:10113000089007900690059004900390029000F0AC
:10114000D5FA8DF807009DF8070030B1FFE70128B8
:1011500024D0FFE7022828D0C1E041F25400C4F2B5
:1011600002000068400AC00780B1FFE741F230008A
:10117000C4F202000068400EC00738B1FFE70B98C8
:1011800046F60041C0F2DC21016006E00B9841F216
:101190000021C0F27A010160FFE7A7E00B9841F25D
:1011A0000021C0F27A010160A0E041F20400C4F223
:1011B00002000068C0F30040089041F22C00C4F225
:1011C000020000680021B1EBD07F47D1FFE741F278
:1011D0000400C4F202000168C1F383410A9100686F
:1011E000C0F341700990099820B9FFE70A980F28C9
:1011F00007D1FFE709980A9901EB001001300A9026
:1012000003E00A9802300A90FFE7089848B9FFE720
:101210000A9840F60011C0F23D0148430B9908605E
:101220001BE041F20400C4F202000068400CC00759
:1012300048B1FFE70A9840F60011C0F23D0148436B
:101240000B99086008E00A9841F20021C0F27A0187
:1012500048430B990860FFE7FFE73FE041F22C00AD
:10126000C4F202000168C1F3031104910168C1F3E3
:1012700008210391006800F007000290089830B937
:10128000FFE740F60010C0F23D00059015E041F286
:101290000400C4F202000068400CC00730B1FFE750
:1012A00040F60010C0F23D00059005E041F200203C
:1012B000C0F27A000590FFE7FFE705980399A0FBCD
:1012C0000101DDF810C0029B01229A400CFB02F2E2
:1012D0000023FEF72FFF0B990860FFE706E00B984D
:1012E00041F20021C0F27A010160FFE741F20400FF
:1012F000C4F202000168C1F303110791079943F298
:101300002E52C0F60002515C06910B990A68069BAA
:10131000DA404A600168C1F302210791079943F25C
:101320003E5CC0F6000C1CF8011006910B994B684E
:10133000069A23FA02F2CA600168C1F3C22107913A
:1013400007991CF8011006910B994A68069BDA4030
:101350008A600168C1F30071079107990068C0F3C2
:10136000813040EA81000790079843F24651C0F669
:101370000001085C06900B988168069AB1FBF2F1B7
:1013800001610CB080BD000082B0019000208DF89A
:101390000300BDF8060041F20001C4F2020140580A
:1013A000019901F01F01C840C00720B9FFE70020E4
:1013B0008DF8030003E001208DF80300FFE79DF89E
:1013C000030002B07047000082B0019001208DF848
:1013D00003009DF8030001280FD1FFE7019800F0FA
:1013E0001F01012202FA01F1000C41F20002C4F2D5
:1013F00002028358194381500FE0019800F01F0149
:10140000012202FA01F1000C41F20002C4F20202D0
:10141000835823EA01018150FFE702B070470000C2
:1014200083B000208DF80B001D218DF80A1001906B
:101430008DF803009DF80B00B0B9FFE741F20400FE
:10144000C4F20200016821F48031016040F600100E
:10145000C0F23D00019041F23000C4F20200016888
:1014600041F00071016029E041F20400C4F2020081
:10147000016841F4803101609DF80B0001280ED114
:10148000FFE741F20020C0F27A00019041F204002F
:10149000C4F20200016821F4003101600DE040F661
:1014A0000010C0F23D00019041F20400C4F20200BD
:1014B000016841F400310160FFE7FFE7019848F25D
:1014C0006121C0F23B0188420CD3FFE7019844F64A
:1014D0003F31C0F24C01884204D8FFE700208DF86C
:1014E000030068E0019845F68101C0F24F0188428F
:1014F0000CD3FFE7019845F60F61C0F25F01884207
:1015000004D8FFE701208DF8030053E0019843F26F
:101510009551C0F2770188420CD3FFE7019841F65C
:101520000F31C0F27F01884204D8FFE702208DF816
:1015300003003EE0019841F61131C0F27F0188427C
:101540000CD3FFE701984BF61F41C0F2BE01884261
:1015500004D8FFE703208DF8030029E0019846F640
:101560002931C0F2EE0188420CD3FFE701984DF219
:101570002F71C0F23D11884204D8FFE704208DF896
:10158000030014E001984DF23171C0F23D11884220
:101590000CD3FFE701984EF6D711C0F2DC11884258
:1015A00004D8FFE705208DF80300FFE7FFE7FFE71A
:1015B000FFE7FFE7FFE79DF80A0000F00F0041F2A8
:1015C0000401C4F202010A6822F4701242EA804067
:1015D00008609DF80A0000F030000A6822F0C0425E
:1015E00042EA406008609DF8030041F22C01C4F219
:1015F00002010A6800F0070022F0E06242EA00609F
:10160000086003B07047000041F20000C4F202001D
:10161000016841F001010160FFE741F20000C4F2FE
:1016200002000068C0F34000012801D0FFE7F4E7A2
:1016300041F20400C4F20200016821F003010160DC
:10164000FFE741F20400C4F202000068800880074E
:1016500008B1FFE7F5E741F20000C4F202000168BB
:101660004FF6FF72CFF6F2621140016041F20400C2
:10167000C4F202000021016041F22C00C4F2020019
:1016800041F61071016041F23000C4F202004FF4E3
:101690008011016041F20800C4F202004FF41F0102
:1016A0000160704781B002208DF803009DF80300AF
:1016B00041F20401C4F202010A6860F301020A6007
:1016C00000BF00BF00BF00BF00BF00BF00BF00BF22
:1016D00000BF00BF00BF00BF00BF00BF00BF00BF12
:1016E00000BF00BF00BF00BF01B0704741F204005F
:1016F000C4F202000068C0F38100704780B584B076
:10170000039003208DF80B0000208DF80700FFE701
:101710009DF807009DF80B10884217DAFFE7039841
:101720009DF80710084400F023FAADF80800BDF852
:1017300008004FF6FF71884201D1FFE707E0FFE79D
:101740009DF8070002308DF80700E1E7FFE7BDF8DC
:10175000080004B080BD000070B58CB040F22400D9
:10176000C2F200000B900B98807840F2B601C2F2F2
:101770000001087108790F280FD1FFE740F2B60089
:10178000C2F2000000214170418040F22400C2F208
:10179000000001704170817026E140F2B600C2F293
:1017A000000040880B99098809BAB0EB114F40F04E
:1017B0001981FFE740F2B600C2F20000007901385B
:1017C000082800F2B780DFE800F005182B3E5165CD
:1017D000798DA10000208DF81D008DF81E008DF878
:1017E0001F008DF820008DF821008DF822008DF863
:1017F000230001208DF824009DE000208DF81D00BD
:101800008DF81E008DF81F008DF820008DF8210046
:101810008DF822008DF8230002208DF824008AE044
:1018200000208DF81D008DF81E008DF81F008DF82A
:1018300020008DF821008DF822008DF82300032070
:101840008DF8240077E000208DF81D008DF81E0033
:101850008DF81F008DF820008DF821008DF82200F2
:101860008DF8230004208DF8240064E000208DF81A
:101870001D000A218DF81E108DF81F008DF8200024
:101880008DF821008DF822008DF8230005208DF8B9
:10189000240050E000208DF81D000A218DF81E1054
:1018A0008DF81F008DF820008DF821008DF82200A2
:1018B0008DF8230006208DF824003CE00A208DF8E6
:1018C0001D0000208DF81E008DF81F008DF82000EF
:1018D0008DF821008DF822008DF8230007208DF867
:1018E000240028E00A208DF81D0000208DF81E003D
:1018F0008DF81F008DF820008DF821008DF8220052
:101900008DF8230008208DF8240014E00A208DF8BB
:101910001D0000208DF81E008DF81F008DF820009E
:101920008DF821008DF822008DF8230009208DF814
:10193000240000E0FFE740F22400C2F2000000248F
:10194000047044708470D1208DF8160001258DF844
:10195000175006208DF818008DF8194007208DF8D3
:101960001A008DF81B400A268DF81C608DF8254062
:101970008DF82640F0208DF82B00DDF8170000BA16
:101980000190DDF81B0000BA0290DDF81F0000BADC
:1019900003909DF823009DF82410000640EA0140C2
:1019A000049001A8FFF792FA0090FFF7B1FA9DF8B2
:1019B00003008DF82700BDF802008DF8280000987C
:1019C000000A8DF8290000988DF82A0040F2B60030
:1019D000C2F2000085714471C6710DF1160001F06C
:1019E00095F800E0FFE7FFE70CB070BD10B582B0DE
:1019F0000190ADF8021003208DF8010042F21004AE
:101A0000C4F20204206840F001002060BDF802002A
:101A1000019908804FF4801000F046F88DF801001D
:101A2000206820F00100206002B010BD42F21000DA
:101A3000C4F20200016841F08001016070470000BB
:101A400081B003208DF8030042F20C00C4F20200C2
:101A50000068C00720B1FFE700208DF803001FE0F9
:101A600042F20C00C4F2020000688008C00720B1F6
:101A7000FFE701208DF8030011E042F20C00C4F2F0
:101A8000020000680009C00720B1FFE702208DF8BE
:101A9000030003E003208DF80300FFE7FFE7FFE703
:101AA0009DF8030001B0704780B582B0019003201B
:101AB0008DF80300FFF7C4FF8DF80300FFE79DF8E2
:101AC0000310002029B9FFE70198002818BF012062
:101AD000FFE7C00740B1FFE7FFF7B2FF8DF8030053
:101AE000019801380190EAE7019820B9FFE7042046
:101AF0008DF80300FFE79DF8030002B080BD0000F1
:101B000010B582B0019003208DF8030042F210045A
:101B1000C4F20204206840F002002060019842F202
:101B20001401C4F202010860206840F04000206007
:101B30004FF08040FFF7B8FF8DF80300206820F0D9
:101B40000200206002B010BD80B5FEF765FB80BDCD
:101B500042F20400C4F2020040F22311C4F26751C1
:101B6000016048F6AB11CCF6EF5101607047000000
:101B700082B00190019800688DF800000198013052
:101B80000190019800688DF801009DF801009DF812
:101B9000001041EA0020ADF80200BDF8020002B0DA
:101BA0007047000082B00190ADF80210BDF802004D
:101BB0000199886202B0704782B04FF09040019066
:101BC0002020ADF80200BDF802000199886102B042
:101BD0007047000081B0009000984FF6FF710160DF
:101BE000009800218171009801710098417100985E
:101BF0000121C17101B0704783B0029001910020B2
:101C0000ADF8000001980068ADF80200FFE7BDF8EC
:101C10000200012861DBFFE7BDF80200C0070028D1
:101C200050D0FFE7BDF800004100032000FA01F1A9
:101C3000029A136823EA0101116001998979BDF8BC
:101C4000002052009140029A136819431160BDF8B8
:101C50000010012202FA01F1029A536823EA0101FD
:101C6000516001990979BDF800209140029A5368AA
:101C700019435160BDF80010490000FA01F1029AC1
:101C8000936823EA010191600199C979BDF80020A8
:101C900052009140029A936819439160BDF8001078
:101CA000490088400299CA6822EA0000C860019889
:101CB0004079BDF80010490088400299CA68104375
:101CC000C860FFE7BDF802004008ADF80200BDF8AB
:101CD00000000130ADF8000099E703B07047000044
:101CE00082B04FF0904001908020ADF802000020BB
:101CF0008DF80100BDF80200019909690140884290
:101D000004D0FFE700208DF8010003E001208DF8EA
:101D10000100FFE79DF8010002B0704782B04FF06C
:101D2000904001902020ADF8020000208DF80100C5
:101D300001984069BDF80210084204D0FFE7012075
:101D40008DF8010003E000208DF80100FFE79DF809
:101D5000010002B07047000084B04FF09041039141
:101D60008DF80B0001208DF80A00002001900090F2
:101D70009DF80A109DF80B2002F007029200914096
:101D800001919DF80B10B0EBD10F16D0FFE79DF835
:101D90000B0000F0070080000F2101FA00F003990A
:101DA0004A6A22EA000048620398406A019908439F
:101DB000009000980399486215E09DF80B0000F030
:101DC000070080000F2101FA00F003990A6A22EA55
:101DD000000008620398006A019908430090009887
:101DE00003990862FFE704B070470000FFE77047FF
:101DF00080B5FFF7FBFF80BD80B540F2B600C2F2B0
:101E00000000C079D8B1FFE740F2B600C2F200008E
:101E1000C1790139C171FFF781FF18B9FFE7FFF7F9
:101E2000CBFE0BE0FFF77AFF012806D1FFE74FF06A
:101E300090402021FFF7B6FEFFE7FFE70BE040F2FE
:101E4000B600C2F200000021C1714FF09040202185
:101E5000FFF7A8FEFFE780BD10B582B0002001901B
:101E600001F0FCF901F0DAF901F082F901F050FA21
:101E700001F046F901F0B0FA01F002FB01F010F9AF
:101E800001F03CFB01F06EFA00F0E4FC40F2CC04FF
:101E9000C2F20004A26841F67170C0F6000005218C
:101EA0009047A26841F6F150C0F600000A21904721
:101EB000A26841F64930C0F6000005219047A268AB
:101EC00040F6C560C0F6000005219047A26842F6C2
:101ED000ED70C0F6000005219047A26841F6F95068
:101EE000C0F600006421904740F20040C4F60000B4
:101EF0000221FFF757FEFEF771F901F0E5F844F211
:101F00000044C4F200042046202100F047FE204691
:101F100000F026FFFFE740F2CC00C2F2000040686C
:101F20008047F8E780B584B08DF80F00029100205B
:101F300001900090FEF7E8FD0299019AFEF760FB20
:101F400000909DF90F000099FEF708FE9DF90F0023
:101F5000FEF7B8FD04B080BD80B582B003208DF8D7
:101F600007009DF80700FEF71BFE02B080BD0000D1
:101F700080B500F001F880BD80B540F2B600C2F235
:101F800000004078C00718B9FFE700F005F802E04C
:101F9000FFF7E2FBFFE780BD81B040F22400C2F210
:101FA0000000009000988078FF2828D1FFE740F2D9
:101FB000B400C2F2000001780131017000781F28DE
:101FC0001CDBFFE740F2B400C2F200000021017008
:101FD00040F2B600C2F2000001224270009A13786B
:101FE000527842EA032242802022C27140F2240049
:101FF000C2F20000017041708170FFE7FFE701B09D
:102000007047000080B58AB00020099008900790C2
:10201000069005900490039002900190FFF766FBF4
:102020008DF803009DF8030030B1FFE701282AD0A6
:10203000FFE7022831D0D6E041F25400C4F202009A
:102040000068400AC00798B1FFE741F23000C4F2CF
:1020500002000068400EC00750B1FFE740F20000E8
:10206000C2F2000046F60041C0F2DC21016009E046
:1020700040F20000C2F2000041F20021C0F27A01F9
:102080000160FFE7B9E040F20000C2F2000041F257
:102090000021C0F27A010160AFE041F20400C4F215
:1020A00002000068C0F30040079041F22C00C4F227
:1020B000020000680021B1EBD07F50D1FFE741F270
:1020C0000400C4F202000168C1F383410991006871
:1020D000C0F341700890089820B9FFE709980F28CD
:1020E00007D1FFE70898099901EB0010013009902A
:1020F00003E0099802300990FFE7079860B9FFE70D
:10210000099840F60011C0F23D01484340F2000139
:10211000C2F20001086021E041F20400C4F20200B2
:102120000068400CC00760B1FFE7099840F6001155
:10213000C0F23D01484340F20001C2F200010860D4
:102140000BE0099841F20021C0F27A01484340F2C5
:102150000001C2F200010860FFE7FFE742E041F240
:102160002C00C4F202000168C1F30311039101685D
:10217000C1F308210291006800F007000190079860
:1021800030B9FFE740F60010C0F23D00049015E0C2
:1021900041F20400C4F202000068400CC00730B1F4
:1021A000FFE740F60010C0F23D00049005E041F268
:1021B0000020C0F27A000490FFE7FFE7049802993C
:1021C000A0FB0101DDF80CC0019B01229A400CFB31
:1021D00002F20023FDF7AEFF40F20001C2F200015F
:1021E0000860FFE709E040F20000C2F2000041F29F
:1021F0000021C0F27A010160FFE741F20400C4F25D
:1022000002000068C0F303100690069843F22E51B6
:10221000C0F60001085C059040F20000C2F2000028
:102220000168059AD14001600AB080BD81B00420E8
:102230008DF803009DF80300042809D1FFE74EF252
:102240001000CEF20000016841F00401016008E0D6
:102250004EF21000CEF20000016821F0040101608E
:10226000FFE701B07047000083B040F20040C4F2C5
:10227000000002904EF66020019027200090019807
:102280000299C8620098029988620298416941F0F7
:102290000101416103B0704784B040F20040C4F2D4
:1022A0000000039002208DF80B00002001909DF8A3
:1022B0000B00ADF80200BDF80200062815D8DFE8D3
:1022C00000F0041408140C1410000398406B0190E3
:1022D0000CE00398806B019008E00398C06B0190BC
:1022E00004E00398006C019000E0FFE7019804B05F
:1022F0007047000082B040F20040C4F2000001903C
:1023000000208DF803009DF8030001990A6800F091
:10231000030022F4407242EA0020086002B07047D5
:1023200082B040F20040C4F20000019000208DF81D
:1023300003009DF8030001990A6800F0070022F0ED
:10234000700242EA0010086002B0704782B040F2AA
:102350000040C4F20000019001208DF803009DF8B8
:10236000030001990A6860F300020A6002B0704736
:1023700082B040F20040C4F20000019000200090C2
:1023800000980199486202B07047000082B040F2A4
:102390000040C4F200000190042000900098C04367
:1023A0000199086102B0704783B040F20041C4F265
:1023B00000010291019000208DF80300ADF80000AB
:1023C00001980078ADF80000BDF80000062800F282
:1023D000FE80DFE810F00700FC004500FC008700ED
:1023E000FC00C5000298016A21F001010162019818
:1023F000407802990A6A00F0010022F0020242EAE3
:10240000400008620198407800F0020002990A6AD0
:1024100022F0080242EA800008620198807802995E
:102420008A6960F301028A610198C07802998A6919
:1024300000F00F0022F0F00242EA001088619DF8DF
:10244000030002998A6900F0030022F00C0242EABC
:10245000800088610298016A41F001010162B7E0E1
:102460000298016A21F010010162019840780299F6
:102470000A6A00F0010022F0200242EA40100862DD
:102480000198407800F0020002990A6A22F0800266
:1024900042EA801008620198807802998A6900F007
:1024A000030022F4407242EA002088610198C0785B
:1024B00002998A6900F00F0022F4704242EA00306B
:1024C00088619DF8030002998A6900F0030022F4F4
:1024D000406242EA802088610298016A41F010015E
:1024E000016275E00298016A21F48071016201982D
:1024F000407802990A6A00F0010022F4007242EA70
:10250000402008620198407800F0020002990A6AAF
:1025100022F4006242EA80200862019880780299E1
:10252000CA6960F30102CA610198C0780299CA6958
:1025300000F00F0022F0F00242EA0010C8619DF89E
:1025400003000299CA6900F0030022F00C0242EA7B
:102550008000C8610298016A41F48071016237E02D
:102560000298016A21F48051016201984078029931
:102570000A6A00F0010022F4005242EA4030086288
:10258000019880780299CA6900F0030022F4407231
:1025900042EA0020C8610198C0780299CA6900F037
:1025A0000F0022F4704242EA0030C8619DF8030037
:1025B0000299CA6900F0030022F4406242EA8020D6
:1025C000C8610298016A41F48051016200E0FFE7AE
:1025D00003B0704783B040F20040C4F200000290A4
:1025E0000420019001208DF803009DF803000128CC
:1025F00006D1FFE701980299CA681043C8600BE052
:102600009DF8030038B9FFE701980299CA6822EAE9
:102610000000C860FFE7FFE703B0704782B040F2F8
:102620000040C4F20000019000208DF803009DF8E6
:10263000030001990A6800F0010022F0800242EADA
:10264000C010086002B0704782B040F20040C4F28F
:102650000000019000208DF803009DF8030001990F
:102660004A6800F0070022F0700242EA0010486059
:1026700002B0704782B040F20040C4F20000019006
:1026800000208DF803009DF8030001998A6800F08E
:10269000010022F0800242EAC010886002B0704758
:1026A00083B00190ADF8021040F22C00C2F200009D
:1026B00090F8840008282FDCFFE7019840F22C01F5
:1026C000C2F2000101F1180291F8843003EB4303D8
:1026D00042F82300BDF8020091F8843003EB430375
:1026E00002EB8303D880BDF8020091F8843003EB3D
:1026F000430302EB8303988091F8840000EB4000D1
:1027000002EB80000022027291F88400013081F80F
:1027100084008DF80B2003E001208DF80B00FFE70B
:102720009DF80B0003B0704783B0019040F22C007D
:10273000C2F2000090F8840001287BDBFFE74EF234
:102740001000CEF20000016821F0010101600020BC
:102750008DF80300FFE79DF8030040F22C01C2F260
:10276000000191F88410884263DAFFE79DF80300C6
:1027700000EB400040F22C01C2F2000101EB8000AE
:102780008069019988424DD1FFE740F22C01C2F2E5
:10279000000101F1180091F88420013A81F88420A9
:1027A00091F8842002EB420250F822209DF8033079
:1027B00003EB430340F8232091F8842002EB42020C
:1027C00000EB8202D2889DF8033003EB430300EB59
:1027D0008303DA8091F8842002EB420200EB82024C
:1027E00092889DF8033003EB430300EB83039A8048
:1027F00091F8841001EB410100EB8101097A9DF809
:10280000032002EB420200EB820001724EF2100044
:10281000CEF20000016841F00101016000208DF856
:102820000B0013E0FFE79DF8030001308DF8030073
:1028300091E7FFE74EF21000CEF20000016841F090
:102840000101016001208DF80B00FFE79DF80B00EE
:1028500003B0704710B540F22C00C2F2000042F6FF
:10286000CD01C0F60001416042F6A121C0F6000191
:10287000016042F2A161C0F60001816042F229715B
:10288000C0F60001C16042F60921C0F600010161F5
:1028900042F68111C0F600014161002180F88410E8
:1028A000D0F800C0D0F804E08368C16802694069CC
:1028B00040F2CC04C2F2000460612261E160A360D6
:1028C000C4F804E0C4F800C010BD000080B582B0B8
:1028D00000208DF80700FFE79DF8070040F22C016B
:1028E000C2F2000191F88410884246DAFFE79DF8B1
:1028F000070000EB400040F22C01C2F2000101EBA6
:102900008000808B90BBFFE79DF8070000EB400044
:1029100040F22C01C2F2000101EB800090F820008F
:10292000012823D0FFE79DF8070000EB400040F2AC
:102930002C01C2F20001183101EB8000C2888280B4
:102940009DF8070000EB400051F8200068B1FFE758
:102950009DF8070000EB400040F22C01C2F200019C
:1029600001EB800080698047FFE7FFE7FFE79DF804
:10297000070001308DF80700AEE702B080BD00000F
:1029800083B001908DF8031000208DF80200FFE75E
:102990009DF8020040F22C01C2F2000191F884106F
:1029A000884228DAFFE79DF8020000EB400040F281
:1029B0002C01C2F2000101EB80008069019988427C
:1029C00012D1FFE79DF803009DF8021001EB4101D1
:1029D00040F22C02C2F2000202EB810181F82000D9
:1029E00000208DF80B000AE0FFE79DF8020001309F
:1029F0008DF80200CCE701208DF80B00FFE79DF871
:102A00000B0003B07047000083B00190ADF80210D6
:102A100000208DF80100FFE79DF8010040F22C0135
:102A2000C2F2000191F88410884231DAFFE79DF884
:102A3000010000EB400040F22C01C2F2000101EB6A
:102A400080008069019988421BD1FFE7BDF8020030
:102A50009DF8011001EB410140F22C02C2F200028C
:102A6000183202EB81018880BDF802009DF8011048
:102A700001EB410102EB8101C88000208DF80B00C1
:102A80000AE0FFE79DF8010001308DF80100C3E77F
:102A900001208DF80B00FFE79DF80B0003B0704795
:102AA00081B000208DF80300FFE79DF8030040F29D
:102AB0002C01C2F2000191F88410884223DAFFE76A
:102AC0009DF8030000EB400040F22C01C2F200012F
:102AD00001EB8000808B01280EDBFFE79DF80300EF
:102AE00000EB400040F22C01C2F2000101EB80003B
:102AF000818B01398183FFE7FFE79DF803000130F7
:102B00008DF80300D1E701B07047000080B582B0B6
:102B100001901620ADF80200FFE7BDF80200411E4B
:102B2000ADF8021068B1FFE7FFE700F04BF808B915
:102B3000FFE7FAE70198411C0191007800F00CF8DA
:102B4000EBE702B080BD000081B0009000984068C3
:102B500080B201B07047000082B043F60001C4F2B9
:102B600001010191ADF80200BDF802006FF35F2092
:102B70000199486002B0704782B0019001208DF841
:102B800003009DF803000199CA6800F0010022F4D7
:102B9000005242EA4030C86002B0704782B00190F3
:102BA00000919DF80000C00628B1FFE70198006879
:102BB0000198406804E00098C04301990860FFE76D
:102BC00002B0704783B043F60000C4F201000190E8
:102BD00080200090019800680099084204D0FFE727
:102BE00001208DF80B0003E000208DF80B00FFE7BB
:102BF0009DF80B0003B0704782B0019000208DF863
:102C000003009DF8030058B9FFE70198416921F4DA
:102C1000807141610198416921F40071416132E0A4
:102C20009DF8030001280BD1FFE70198416941F4A9
:102C3000807141610198416921F40071416121E095
:102C40009DF8030002280BD1FFE70198416921F4A8
:102C5000807141610198416941F40071416110E066
:102C60009DF8030003280BD1FFE70198416941F467
:102C7000807141610198416941F400714161FFE750
:102C8000FFE7FFE7FFE702B07047000080B58AB0BA
:102C900009904FF4E130089000208DF81F008DF866
:102CA0001E0002A8FEF73EFA099843F60001C4F29E
:102CB0000101884203D1FFE70498019002E00598E2
:102CC0000190FFE7019800EB800040000899B0FBFD
:102CD000F1F0009000984CF6CD41CCF6CC41A0FB31
:102CE0000112D10801EB8101A0EB410004280AD8B0
:102CF000FFE700984CF6CD41CCF6CC41A0FB01019A
:102D0000C80800900BE000984CF6CD41CCF6CC41C1
:102D1000A0FB0101012000EBD1000090FFE7BDF80E
:102D2000000009998A684FF6FF739A43104488603F
:102D30009DF81F000999CA6800F0010022F4805232
:102D400042EA0030C8609DF81E0009990A6900F047
:102D5000030022F4405242EA003008610AB080BD0C
:102D600083B002900520C0F20C00019001208DF884
:102D700003009DF8030001280CD1FFE7019800F043
:102D80001F01012202FA01F1029A000C13581943A3
:102D900011500CE0019800F01F01012202FA01F12C
:102DA000029A000C135823EA01011150FFE703B007
:102DB0007047000084B002902020019000208DF820
:102DC0000300019801285FD0FFE7022855D0FFE7F4
:102DD000042852D0FFE7082837D0FFE7102845D055
:102DE000FFE720282AD0FFE7402820D0FFE78028EF
:102DF00016D0FFE7B0F5807F0BD0FFE7B0F5007F7E
:102E000049D1FFE702984069C0F380208DF80300A4
:102E100045E002980069C0F380108DF803003EE0A1
:102E20000298C068C0F3C0108DF8030037E0029824
:102E3000C068C0F380108DF8030030E00298C068CD
:102E4000C0F340108DF8030029E00298C0684109E2
:102E50000120C90729B9FFE70298406900F0010085
:102E6000FFE700F001008DF8030018E00298C06849
:102E7000C0F300108DF8030011E00298406900F0E3
:102E800001008DF803000AE00298C068C0F300203A
:102E90008DF8030003E000208DF80300FFE79DF8A4
:102EA0000300012804D0FFE700208DF80F000DE09B
:102EB000029800680199084204D0FFE701208DF8CC
:102EC0000F0003E000208DF80F00FFE79DF80F00D2
:102ED00004B0704782B0019000208DF803009DF887
:102EE000030058B9FFE70198C16821F40071C1607F
:102EF0000198C16821F48061C16021E09DF8030060
:102F000001280BD1FFE70198C16821F40071C1606D
:102F10000198C16841F48061C16010E09DF8030030
:102F200002280BD1FFE70198C16841F40071C1602C
:102F30000198C16841F48061C160FFE7FFE7FFE7E6
:102F400002B0704782B0019001208DF803009DF817
:102F500003000199CA6800F0010022F0040242EA6D
:102F60008000C86002B070478CB00020ADF802004D
:102F700040F2B600C2F200008079C00788B1FFE7D6
:102F800040F2B600C2F200004079C00748B9FFE73E
:102F900040F2B600C2F200000021817101214171AE
:102FA00021E040F2B600C2F20000407AC00738B11A
:102FB000FFE740F2B600C2F200000021417211E0CA
:102FC00040F2B600C2F200004079C00748B9FFE7FE
:102FD00040F2B600C2F20000407AC00708B9FFE72D
:102FE000FFE7FFE7FFE70CB07047000080B5FFF791
:102FF000BBFF80BD82B043F60000C4F20100019027
:1030000001208DF803009DF803000199CA6800F0C3
:10301000010022F0080242EAC000C86002B0704716
:1030200043F20000C4F200004AF6AA210160704792
:1030300081B000208DF803009DF8030043F20401E5
:10304000C4F200010A6860F302020A6001B070472E
:1030500081B001208DF803009DF8030038B9FFE727
:1030600043F20000C4F200000021016007E043F2D7
:103070000000C4F2000045F255510160FFE701B0C5
:103080007047000081B00920ADF80200BDF80200D1
:1030900043F20801C4F20001086001B0704700006B
:1030A00080B5FDF73FFFFDF749FFFDF75BFFFDF73B
:1030B00067FFFDF779FFFDF72BFF0620C0F2140034
:1030C000FEF782F980BD000080B582B04FF4FA604F
:1030D000019000F00BF900900198013020B1FFE75A
:1030E000019801300190FFE7FFE700F0FFF8009939
:1030F000401A0199884201D2FFE7F6E702B080BD8D
:103100002DE9F04383B001AC2046FEF763FD4FF09C
:1031100020084FF090402021FEF744FD40F2004986
:10312000C4F60009022748460221FEF73BFD8DF850
:103130000B7000268DF8086001258DF80A50CDF837
:1031400004808DF809604FF090402146FEF754FD51
:103150008DF80B708DF808608DF80A5001978DF886
:10316000096048462146FEF747FD03B0BDE8F083FD
:1031700080B5FEF7F1FEFDF7BFFC0021FDF70EFA6A
:1031800001466FF00B00FDF7C7FCFDF7B5FC002111
:10319000FDF704FA01466FF00A00FDF7BDFCFDF7EC
:1031A000ABFC0021FDF7FAF901466FF00900FDF7CD
:1031B000B3FCFDF7A1FC0021FDF7F0F901466FF02B
:1031C0000400FDF7A9FCFDF797FC0021FDF7E6F9E7
:1031D00001466FF00300FDF79FFCFDF78DFC002119
:1031E000FDF7DCF901466FF00100FDF795FCFDF7F6
:1031F00083FC0F21FDF7D2F901464FF0FF30FDF7B8
:103200008BFC10200E21FEF78DFE1B200021FEF707
:1032100089FE1C200021FEF785FE80BD80B50620BA
:10322000C0F21400FEF7D0F81120C0F21400FEF72F
:10323000CBF81220C0F21400FEF7C6F80E20C0F240
:103240001800FEF7C1F80120C0F21C00FEF7BCF820
:103250001120C0F21C00FEF7B7F880BD80B5FEF764
:10326000D3F942F20000C4F2020040F253110160AF
:103270000420FDF705FFFFE70120C0F22400FEF760
:1032800083F8012801D0FFE7F6E70020FDF7F8FEFC
:10329000FFE70120FEF778F8012801D0FFE7F8E703
:1032A000FEF7BEF80220FDF7EBFEFFE71920FEF760
:1032B0006BF8012801D0FFE7F8E7FDF789FEFDF77D
:1032C000AFFEFDF799FE0120FDF7BEFEFEF7EAF91D
:1032D000FFE7FEF70BFA022801D0FFE7F9E700202D
:1032E000FDF7B2FEFEF78EFE80BD000040F2C80082
:1032F000C2F200000068704780B500F001F880BDA0
:1033000040F2C800C2F2000001680131016070475C
:1033100010B586B00024009401A8FDF703FF0298C1
:103320000090FEF783FF009844F6D351C1F262018A
:10333000A0FB01014FF0FF3000EB91104EF21401A1
:10334000CEF2000108604EF21800CEF200000460D8
:103350004EF21000CEF20000016841F0030101605E
:1033600006B010BD70B584B002AC2046FEF732FC4A
:103370000720FEF7F1FC8020029002268DF80E60F7
:1033800000258DF80C508DF80D508DF80F604FF022
:1033900090402146FEF730FCFEF7C2FFFEF7AAFF81
:1033A000FFF73CF9FEF760FFFFF764F9FFF74CF910
:1033B0008DF8046001208DF8060003208DF80500CB
:1033C0008DF8075001A8FEF7EFFFFEF7BFFFFFF7EC
:1033D00001F904B070BD0000F0B583B00E20C0F25A
:1033E0001800FDF7F1FF1120C0F21400FDF7ECFF0B
:1033F00001AC2046FEF7EEFB0920FEF7ADFC0125EF
:103400008DF80B5000268DF8086002278DF80A70A1
:103410004FF4007001908DF809604FF09040214604
:10342000FEF7EAFB0A20FEF797FC8DF80B508DF8AB
:1034300008608DF80A704FF4806001908DF8096083
:103440004FF090402146FEF7D7FB43F60004C4F24C
:1034500001042046FFF71AFCFFF7CCFD2046FFF7DA
:1034600071FD2046FFF736FD2046FFF7C5FB2046DD
:10347000FFF776FC2046FFF77FFB03B0F0BD0000AE
:1034800010B582B01120C0F21C00FDF79DFF112085
:10349000C0F21400FDF798FF6C462046FEF79AFB39
:1034A0000320FEF759FC01208DF8070000208DF85D
:1034B000040002218DF80610082100918DF8050006
:1034C0004FF090402146FEF797FB44F20044C4F2CF
:1034D00000042046FFF7DAFB2046FFF733FD2046C5
:1034E000FFF7F8FC2046FFF787FB20462021FFF777
:1034F00055FB2046FFF740FB02B010BD80B5FFF73B
:10350000A7FDFFF795FDFFF7BDFDFFF789FD80BD26
:1035100002E008C8121F08C1002AFAD1704770479C
:10352000002001E001C1121F002AFBD170470000FA
:103530000000000000000102030406070809000063
:1035400000000102030402040608020C0810000037
:103550007035000800000020080000001035000849
:103560007835000808000020E80400002035000835
:0835700000127A0000000000C7
:04000005080000CD22
:00000001FF
