:020000040800F2
:10000000F0040020E1000008E5040008DD04000819
:10001000E1040008D5010008250A000800000000DE
:10002000000000000000000000000000B50500080E
:10003000D901000800000000B1050008B90500085A
:10004000FB000008FB000008FB000008FB000008A4
:10005000FB000008FB000008FB000008FB00000894
:1000600000000000FB000008FB000008FB00000887
:10007000FB000008FB000008FB0000080000000077
:1000800079060008FB00000800000000FB000008E3
:10009000FB000008FB000008FB000008FB00000854
:1000A000FB000008FB000008FB0000082509000811
:1000B0008D090008000000000000000000000000A2
:1000C000FB00000800000000FB000008DFF80CD077
:1000D00000F018F8004800477D1E0008F0040020DA
:1000E0000648804706480047FEE7FEE7FEE7FEE7D2
:1000F000FEE7FEE7FEE7FEE7FEE7FEE7CD050008C8
:10010000CD0000081CB5094800900948019005463B
:10011000009C06E0E06840F0010394E8070098477F
:100120001034AC42F6D3FFF7D5FF0000F0340008DE
:10013000103500082DE9F05F0546002092469B46E9
:1001400088460646814640241BE0284641464746ED
:10015000224600F02FF853465A46C01A914110D358
:1001600011461846224600F016F82D1A67EB0108D2
:100170004F4622460120002100F00DF817EB000940
:100180004E41201EA4F10104DFDC484631462A46D8
:100190004346BDE8F09F202A04DB203A00FA02F132
:1001A000002070479140C2F1200320FA03F3194365
:1001B00090407047202A04DB203A21FA02F0002107
:1001C000704721FA02F3D040C2F120029140084367
:1001D00019467047FFE7FEE77047000081B040F224
:1001E000B200C2F200000090009800214170009817
:1001F00041800098017100984171009881710098C8
:100200004172009881720098C1720098017301B028
:100210007047000010B540F21800C2F200000078EC
:10022000052800F25A81DFE810F00600AB00F50067
:1002300007011901410140F21200C2F200000078EA
:10024000002840F09580FFE74FF20000C0F6000064
:1002500001F04EFA4FF6FF7188423FD0FFE74FF2B0
:100260000040C0F6000001F043FA4FF6FF718842EB
:1002700034D0FFE74FF20200C0F6000001F0E6FCC8
:1002800040F20E04C2F2000420804FF20240C0F699
:10029000000001F0DBFC40F21001C2F20001088016
:1002A0002088098888420CDDFFE74FF20000C0F685
:1002B000000001F0CBFC40F2B201C2F20001488024
:1002C0000BE04FF20040C0F6000001F0BFFC40F22E
:1002D000B201C2F200014880FFE736E04FF20000B1
:1002E000C0F6000001F004FA4FF6FF7188420CD00E
:1002F000FFE74FF20000C0F6000001F0A7FC40F25B
:10030000B201C2F2000148801EE04FF20040C0F688
:10031000000001F0EDF94FF6FF7188420CD0FFE7C5
:100320004FF20040C0F6000001F090FC40F2B20134
:10033000C2F20001488006E040F2B200C2F20000C2
:1003400000214180FFE7FFE7FFE7FFE7FFE740F21B
:10035000B200C2F20000408840F21601C2F2000171
:10036000088040F21200C2F200000121017006E094
:1003700040F21800C2F2000001210170ADE0ACE0D3
:1003800040F21600C2F20000008840F2B201C2F250
:100390000001498888423CD0FFE701F047FC40F269
:1003A0001300C2F200000078C00780B1FFE74FF2EF
:1003B0000004C0F60004204601F010FC40F2B20038
:1003C000C2F200004188204601F07EFB0FE04FF2B0
:1003D0000044C0F60004204601F000FC40F2B200E8
:1003E000C2F200004188204601F06EFBFFE740F2B8
:1003F000B200C2F20000408840F21601C2F20001D1
:10040000088040F21800C2F200000178013101704A
:1004100063E062E040F21300C2F200000078C0071F
:1004200008B1FFE700E0FFE740F21800C2F2000069
:1004300001780131017050E040F21300C2F2000077
:100440000078C00708B1FFE700E0FFE740F21800BE
:10045000C2F200000178013101703EE040F2130069
:10046000C2F200000078C00760B1FFE740F214005C
:10047000C2F2000001884FF20200C0F6000001F055
:1004800023FB0BE040F21400C2F2000001884FF29F
:100490000240C0F6000001F017FBFFE740F2180031
:1004A000C2F2000001780131017016E001F02CFB6E
:1004B00040F21400C2F2000001880131018040F2D4
:1004C0001300C2F2000001780131017040F21800FF
:1004D000C2F2000000210170FFE710BDFFE7FEE758
:1004E000FFE7FEE77047000086B00590049100200A
:1004F0000390059800F0070002900298C0F10700F1
:10050000052802D3FFE7042003E00298C0F10700AA
:10051000FFE7019002980430062802D8FFE7002088
:1005200002E002980338FFE7009004980199012245
:1005300002FA01F10139084000998840039B02FA50
:1005400001F101391940084306B0704786B00590A3
:1005500004910392059800F0070002900298C0F100
:100560000700052802D3FFE7042003E00298C0F14A
:100570000700FFE7019002980430062802D8FFE741
:10058000002002E002980338FFE7009004980199E8
:10059000012202FA01F10139084000998840039BC9
:1005A00002FA01F101391940084306B07047000012
:1005B000704700007047000080B502F06DFE40F209
:1005C000C800C2F200000068804780BD41F2000010
:1005D000C4F20200016841F001010160FFE741F24D
:1005E0000000C4F202000068C0F34000012801D0FE
:1005F000FFE7F4E741F20400C4F20200016821F0D1
:1006000003010160FFE741F20400C4F20200006848
:100610008008800708B1FFE7F5E741F20000C4F267
:10062000020001684FF6FF72CFF6F26211400160DE
:1006300041F20400C4F202000021016041F22C00EA
:10064000C4F2020041F61071016041F23000C4F2C0
:1006500002004FF48011016041F20800C4F2020070
:100660004FF41F0101604EF60850CEF200004FF02B
:10067000006101607047000080B582B001F090FB1E
:100680008DF8070001F076FE01F0FAFD40F224013A
:10069000C2F20001088001F05FFE40F2C000C2F229
:1006A00000000078DFE810F0060013003A006D004B
:1006B000E5000B019DF80700012807D1FFE740F294
:1006C000C000C2F2000001210170FFE728E19DF89F
:1006D0000700D8B9FFE740F22400C2F2000000880A
:1006E00047F23051884211DBFFE740F22400C2F2AA
:1006F000000000884AF6C871884207DCFFE740F234
:10070000C000C2F200000221017006E040F2C00009
:10071000C2F2000001210170FFE701E19DF807002E
:10072000012826D1FFE740F22400C2F20000008831
:1007300047F2305188421CDBFFE740F22400C2F24E
:10074000000000884AF6C871884212DCFFE740F2D8
:100750001A00C2F200000021018040F21C00C2F227
:100760000000016040F2C000C2F2000003210170ED
:1007700006E040F2C000C2F2000001210170FFE774
:10078000CEE09DF8070000286BD1FFE740F21C0087
:10079000C2F2000001684900016040F22400C2F288
:1007A0000000008840F6B831884217DBFFE740F2CE
:1007B0002400C2F200000088B0F5965F0EDCFFE76F
:1007C00040F21C00C2F2000001680131016040F2F9
:1007D000C000C2F200000421017020E040F22400B9
:1007E000C2F200000088B0F5966F10DBFFE740F220
:1007F0002400C2F200000088B0F5166F07DCFFE7A6
:1008000040F2C000C2F200000521017006E040F293
:10081000C000C2F2000001210170FFE7FFE740F2D3
:100820001A00C2F2000001880131018000881828F6
:1008300016DBFFE740F21C00C2F20000418840F2E4
:100840002002C2F2000211700168090A51700068AA
:10085000907040F2C000C2F2000001210170FFE779
:1008600006E040F2C000C2F2000001210170FFE783
:1008700056E09DF80700012819D1FFE740F2240057
:10088000C2F200000088B0F5966F10DBFFE740F27F
:100890002400C2F200000088B0F5166F07DCFFE705
:1008A00040F2C000C2F200000321017006E040F2F5
:1008B000C000C2F2000001210170FFE730E09DF8A6
:1008C0000700012824D1FFE740F22400C2F2000013
:1008D000008840F6B83188421ADBFFE740F2240076
:1008E000C2F20000008840F6B831884210DBFFE712
:1008F00040F22400C2F200000088B0F5965F07DCE9
:10090000FFE740F2C000C2F200000321017006E0E0
:1009100040F2C000C2F2000001210170FFE7FFE7D2
:1009200002B080BD80B543F60C00C4F2010000683F
:100930004009C00740B3FFE743F60000C4F20100DE
:1009400002F030FAF8B1FFE743F60000C4F201000C
:1009500002F0EEF840F2E000C2F20000017801314E
:100960000170007814280DDBFFE740F2E000C2F2CE
:1009700000000021017043F60000C4F2010002F003
:1009800001F9FFE7FFE7FFE780BD000080B544F213
:100990000040C4F2000002F005FA002841D0FFE751
:1009A00044F20040C4F2000002F0C2F840F2E80154
:1009B000C2F200010A78531C0B7040F2E203C2F24B
:1009C000000323F812000878032829DBFFE740F230
:1009D000E200C2F20000018840F20802C2F2000206
:1009E0001180418840F20A02C2F200021180808820
:1009F00040F20C01C2F20001088040F2E800C2F2AD
:100A000000000021017044F20040C4F2000002F036
:100A1000B9F840F21900C2F2000001210170FFE7AD
:100A2000FFE780BDFFE7FEE781B08DF803009DF989
:100A3000030000280FD4FFE79DF9030000F01F0119
:100A4000012202FA01F140094EF20012CEF2000238
:100A500042F82010FFE701B0704700004EF60C503E
:100A6000CEF200000068C0F3022070474EF60C5032
:100A7000CEF200000068C0F30220704782B08DF80B
:100A8000070000919DF9070000280AD4FFE70098AD
:100A900000019DF907104EF20042CEF20002885488
:100AA0000BE0009800019DF8071001F00F014EF6D1
:100AB0001452CEF200028854FFE702B070470000E3
:100AC00082B08DF8070000919DF9070000280AD434
:100AD000FFE7009800019DF907104EF20042CEF2A8
:100AE000000288540BE0009800019DF8071001F007
:100AF0000F014EF61452CEF200028854FFE702B006
:100B00007047000083B00290029800F00700009048
:100B10004EF60C50CEF200000168019101994FF69B
:100B2000FF02114001910199009A41EA022100223D
:100B3000C0F2FA52114301910199016003B070476C
:100B400010B590B000200A90099040F21900C2F24E
:100B500000000078012840F0AC81FFE740F2190066
:100B6000C2F200000021017040F20800C2F2000051
:100B70000088002840F09C81FFE740F20A00C2F2A2
:100B800000000088012840F09381FFE740F20C004C
:100B9000C2F20000008801380E2800F23281DFE83E
:100BA00010F00F002200350048005B006F0083004A
:100BB0009700AB00BE00D100E400F7000A011D0160
:100BC00000208DF833008DF834008DF835008DF855
:100BD00036008DF837008DF838008DF83900012087
:100BE0008DF83A000EE100208DF833008DF83400C6
:100BF0008DF835008DF836008DF837008DF8380007
:100C00008DF8390002208DF83A00FBE000208DF8C5
:100C100033008DF834008DF835008DF836008DF8EE
:100C200037008DF838008DF8390003208DF83A0030
:100C3000E8E000208DF833008DF834008DF83500A1
:100C40008DF836008DF837008DF838008DF83900B2
:100C500004208DF83A00D5E000208DF833000A21F9
:100C60008DF834108DF835008DF836008DF837008A
:100C70008DF838008DF8390005208DF83A00C1E074
:100C800000208DF833000A218DF834108DF83500DE
:100C90008DF836008DF837008DF838008DF8390062
:100CA00006208DF83A00ADE00A208DF833000020D0
:100CB0008DF834008DF835008DF836008DF837004A
:100CC0008DF838008DF8390007208DF83A0099E04A
:100CD0000A208DF8330000208DF834008DF835009F
:100CE0008DF836008DF837008DF838008DF8390012
:100CF00008208DF83A0085E000208DF833008DF84B
:100D000034008DF835008DF836008DF837008DF8F9
:100D100038008DF8390009208DF83A0072E0002083
:100D20008DF833008DF834008DF835008DF83600DD
:100D30008DF837008DF838008DF839000A208DF8CD
:100D40003A005FE000208DF833008DF834008DF814
:100D500035008DF836008DF837008DF838008DF8A5
:100D600039000B208DF83A004CE000208DF833005C
:100D70008DF834008DF835008DF836008DF8370089
:100D80008DF838008DF839000E208DF83A0039E0E2
:100D900000208DF833008DF834008DF835008DF883
:100DA00036008DF837008DF838008DF839000F20A7
:100DB0008DF83A0026E000208DF833008DF83400DD
:100DC0008DF835008DF836008DF837008DF8380035
:100DD0008DF8390010208DF83A0013E000208DF8CE
:100DE00033008DF834008DF835008DF836008DF81D
:100DF00037008DF838008DF8390011208DF83A0051
:100E000000E0FFE740F20800C2F200000024048086
:100E100040F20A00C2F20000048040F20C00C2F26C
:100E2000000004809DF8330001909DF8340002908A
:100E30009DF8350003909DF8360004909DF837002A
:100E400005909DF8380006909DF8390007909DF8B0
:100E50003A00089001A800F033F8009000F052F832
:100E60009DF803008DF83B00BDF802008DF83C00B2
:100E70000098000A8DF83D0000988DF83E00D120C2
:100E80008DF82C0001208DF82D0006208DF82E0005
:100E90008DF82F408DF830008DF8314008208DF806
:100EA0003200F0208DF83F000BA801F023FEFFE791
:100EB000FFE710B010BD000080B5FFF741FE80BD18
:100EC00083B0029008200190002000900090FFE77E
:100ED0000098019988420ED2FFE70298009950F8D5
:100EE000210043F20001C4F202010860FFE700980C
:100EF00001300090ECE743F20000C4F20200006809
:100F000003B0704743F20800C4F20200016841F0E8
:100F1000010101607047000081B04FF0FF30009088
:100F2000009843F21001C4F20201086001B070475A
:100F300081B000208DF803009DF8030043F2080102
:100F4000C4F202010A6800F0030022F0180242EA2B
:100F5000C000086001B0704781B041F6B750C0F2E0
:100F6000C1400090009843F21401C4F202010860ED
:100F700001B0704781B000208DF803009DF8030098
:100F800043F20801C4F202010A6800F0030022F0F3
:100F9000600242EA4010086001B0704781B0002052
:100FA0008DF803009DF8030043F20801C4F202012A
:100FB0000A6800F0010022F0800242EAC0100860D6
:100FC00001B0704781B000208DF803009DF8030048
:100FD00041F20401C4F202010A6800F00F0022F09D
:100FE000F00242EA0010086001B0704781B00020B2
:100FF0008DF803009DF8030041F20401C4F20201E0
:101000000A6800F0070022F4E06242EA002008606B
:1010100001B0704781B000208DF803009DF80300F7
:1010200041F20401C4F202010A6800F0070022F450
:10103000605242EAC020086001B0704781B08DF86C
:1010400003009DF80300012809D1FFE741F2540095
:10105000C4F20200016841F03001016008E041F291
:101060005400C4F20200016821F030010160FFE782
:1010700001B0704781B08DF8030001208DF80200A7
:101080009DF80300042843D8DFE800F0030E1D2C70
:1010900037009DF8020041F20001C4F202010A6823
:1010A00060F300020A6034E09DF8020041F20001A2
:1010B000C4F202010A6800F0010022F4803242EA20
:1010C0000040086025E09DF8020041F20001C4F2F2
:1010D00002010A6800F0010022F0807242EA00601A
:1010E000086016E09DF8020041F22001C4F20201FE
:1010F0000A6860F300020A600BE09DF8020041F20A
:101100002401C4F202010A6860F300020A6000E0F0
:10111000FFE701B07047000080B58CB00B90002055
:101120000A9009900890079006900590049003900B
:10113000029000F0D5FA8DF807009DF8070030B155
:10114000FFE7012824D0FFE7022828D0C1E041F2C0
:101150005400C4F202000068400AC00780B1FFE7F3
:1011600041F23000C4F202000068400EC00738B1FE
:10117000FFE70B9846F60041C0F2DC21016006E073
:101180000B9841F20021C0F27A010160FFE7A7E06D
:101190000B9841F20021C0F27A010160A0E041F217
:1011A0000400C4F202000068C0F30040089041F25D
:1011B0002C00C4F2020000680021B1EBD07F47D1BF
:1011C000FFE741F20400C4F202000168C1F3834169
:1011D0000A910068C0F341700990099820B9FFE7AF
:1011E0000A980F2807D1FFE709980A9901EB001028
:1011F00001300A9003E00A9802300A90FFE708984D
:1012000048B9FFE70A9840F60011C0F23D01484393
:101210000B9908601BE041F20400C4F20200006870
:10122000400CC00748B1FFE70A9840F60011C0F231
:101230003D0148430B99086008E00A9841F20021FB
:10124000C0F27A0148430B990860FFE7FFE73FE0EF
:1012500041F22C00C4F202000168C1F303110491B1
:101260000168C1F308210391006800F007000290B3
:10127000089830B9FFE740F60010C0F23D00059035
:1012800015E041F20400C4F202000068400CC007FF
:1012900030B1FFE740F60010C0F23D00059005E0D8
:1012A00041F20020C0F27A000590FFE7FFE70598C1
:1012B0000399A0FB0101DDF810C0029B01229A40B6
:1012C0000CFB02F20023FEF735FF0B990860FFE7E5
:1012D00006E00B9841F20021C0F27A010160FFE7BD
:1012E00041F20400C4F202000168C1F30311079146
:1012F000079943F2CE42C0F60002515C06910B9969
:101300000A68069BDA404A600168C1F3022107912E
:10131000079943F2DE4CC0F6000C1CF80110069150
:101320000B994B68069A23FA02F2CA600168C1F36E
:10133000C221079107991CF8011006910B994A6880
:10134000069BDA408A600168C1F300710791079932
:101350000068C0F3813040EA81000790079843F2AB
:10136000E641C0F60001085C06900B988168069A79
:10137000B1FBF2F101610CB080BD000082B00190C0
:1013800000208DF80300BDF8060041F20001C4F210
:1013900002014058019901F01F01C840C00720B95F
:1013A000FFE700208DF8030003E001208DF8030023
:1013B000FFE79DF8030002B07047000082B0019083
:1013C00001208DF803009DF8030001280FD1FFE7ED
:1013D000019800F01F01012202FA01F1000C41F214
:1013E0000002C4F202028358194381500FE00198B1
:1013F00000F01F01012202FA01F1000C41F200028B
:10140000C4F20202835823EA01018150FFE702B0CF
:101410007047000083B000208DF80B001D218DF86F
:101420000A1001908DF803009DF80B00B0B9FFE79A
:1014300041F20400C4F20200016821F4803101602D
:1014400040F60010C0F23D00019041F23000C4F2BD
:101450000200016841F00071016029E041F20400DE
:10146000C4F20200016841F4803101609DF80B0074
:1014700001280ED1FFE741F20020C0F27A0001906E
:1014800041F20400C4F20200016821F4003101605D
:101490000DE040F60010C0F23D00019041F2040062
:1014A000C4F20200016841F400310160FFE7FFE788
:1014B000019848F26121C0F23B0188420CD3FFE75A
:1014C000019844F63F31C0F24C01884204D8FFE74E
:1014D00000208DF8030068E0019845F68101C0F214
:1014E0004F0188420CD3FFE7019845F60F61C0F227
:1014F0005F01884204D8FFE701208DF8030053E024
:10150000019843F29551C0F2770188420CD3FFE76E
:10151000019841F60F31C0F27F01884204D8FFE7FD
:1015200002208DF803003EE0019841F61131C0F22F
:101530007F0188420CD3FFE701984BF61F41C0F2B0
:10154000BE01884204D8FFE703208DF8030029E09C
:10155000019846F62931C0F2EE0188420CD3FFE72C
:1015600001984DF22F71C0F23D11884204D8FFE777
:1015700004208DF8030014E001984DF23171C0F29F
:101580003D1188420CD3FFE701984EF6D711C0F207
:10159000DC11884204D8FFE705208DF80300FFE73F
:1015A000FFE7FFE7FFE7FFE7FFE79DF80A0000F02E
:1015B0000F0041F20401C4F202010A6822F4701221
:1015C00042EA804008609DF80A0000F030000A6896
:1015D00022F0C04242EA406008609DF8030041F2F8
:1015E0002C01C4F202010A6800F0070022F0E06258
:1015F00042EA0060086003B07047000041F200005A
:10160000C4F20200016841F001010160FFE741F20C
:101610000000C4F202000068C0F34000012801D0BD
:10162000FFE7F4E741F20400C4F20200016821F090
:1016300003010160FFE741F20400C4F20200006808
:101640008008800708B1FFE7F5E741F20000C4F227
:10165000020001684FF6FF72CFF6F262114001609E
:1016600041F20400C4F202000021016041F22C00AA
:10167000C4F2020041F61071016041F23000C4F280
:1016800002004FF48011016041F20800C4F2020030
:101690004FF41F010160704781B002208DF80300F4
:1016A0009DF8030041F20401C4F202010A6860F3EC
:1016B00001020A6000BF00BF00BF00BF00BF00BF43
:1016C00000BF00BF00BF00BF00BF00BF00BF00BF22
:1016D00000BF00BF00BF00BF00BF00BF01B0704728
:1016E00041F20400C4F202000068C0F381007047B8
:1016F00080B584B0039002208DF80B0000208DF897
:101700000700FFE79DF807009DF80B10884217DAE5
:10171000FFE703989DF80710084400F097FAADF82A
:101720000800BDF808004FF6FF71884201D1FFE7BD
:1017300007E0FFE79DF8070002308DF80700E1E7BA
:10174000FFE7BDF8080004B080BD000010B590B000
:1017500040F22000C2F200000F900F98807840F213
:10176000B201C2F20001087108790F2808D1FFE721
:1017700040F2B200C2F20000002141704180A1E1BC
:1017800040F2B200C2F2000040880F99098809BAFD
:10179000B0EB114F40F09481FFE740F2B200C2F28B
:1017A0000000007901380F2800F23481DFE810F0E2
:1017B00010002300360049005C007000840098008F
:1017C000AC00BF00D200E500F8000B011E013101A2
:1017D00000208DF82F008DF830008DF831008DF845
:1017E00032008DF833008DF834008DF8350001207B
:1017F0008DF836000FE100208DF82F008DF83000B5
:101800008DF831008DF832008DF833008DF83400FA
:101810008DF8350002208DF83600FCE000208DF8B0
:101820002F008DF830008DF831008DF832008DF8E2
:1018300033008DF834008DF8350003208DF8360024
:10184000E9E000208DF82F008DF830008DF8310090
:101850008DF832008DF833008DF834008DF83500A6
:1018600004208DF83600D6E000208DF82F000A21E4
:101870008DF830108DF831008DF832008DF833007E
:101880008DF834008DF8350005208DF83600C2E063
:1018900000208DF82F000A218DF830108DF83100CE
:1018A0008DF832008DF833008DF834008DF8350056
:1018B00006208DF83600AEE00A208DF82F000020BB
:1018C0008DF830008DF831008DF832008DF833003E
:1018D0008DF834008DF8350007208DF836009AE039
:1018E0000A208DF82F0000208DF830008DF831008F
:1018F0008DF832008DF833008DF834008DF8350006
:1019000008208DF8360086E000208DF82F008DF835
:1019100030008DF831008DF832008DF833008DF8ED
:1019200034008DF8350009208DF8360073E0002072
:101930008DF82F008DF830008DF831008DF83200D1
:101940008DF833008DF834008DF835000A208DF8BD
:10195000360060E000208DF82F008DF830008DF803
:1019600031008DF832008DF833008DF834008DF899
:1019700035000B208DF836004DE000208DF82F004B
:101980008DF830008DF831008DF832008DF833007D
:101990008DF834008DF835000E208DF836003AE0D1
:1019A00000208DF82F008DF830008DF831008DF873
:1019B00032008DF833008DF834008DF835000F209B
:1019C0008DF8360027E000208DF82F008DF83000CC
:1019D0008DF831008DF832008DF833008DF8340029
:1019E0008DF8350010208DF8360014E000208DF8B9
:1019F0002F008DF830008DF831008DF832008DF811
:101A000033008DF834008DF8350011208DF8360044
:101A100001E000E0FFE740F22000C2F200000024F5
:101A20000470447084709DF82F0002909DF830007F
:101A300003909DF8310004909DF8320005909DF8C8
:101A4000330006909DF8340007909DF8350008900B
:101A50009DF83600099002A8FFF732FA0190FFF7CF
:101A600051FA9DF807008DF83700BDF806008DF893
:101A700038000198000A8DF8390001988DF83A0075
:101A8000D1208DF8280001208DF8290006218DF83D
:101A90002A108DF82B4007218DF82C108DF82D4041
:101AA00008218DF82E10F0218DF83B1040F2B20184
:101AB000C2F2000188714C710AA801F01BF800E025
:101AC000FFE7FFE710B010BD10B582B00190ADF890
:101AD000021003208DF8010042F21004C4F2020447
:101AE000206840F001002060BDF8020001990880E4
:101AF0004FF4801000F046F88DF80100206820F0C7
:101B00000100206002B010BD42F21000C4F20200D9
:101B1000016841F0800101607047000081B003203E
:101B20008DF8030042F20C00C4F202000068C00706
:101B300020B1FFE700208DF803001FE042F20C0007
:101B4000C4F2020000688008C00720B1FFE701204E
:101B50008DF8030011E042F20C00C4F202000068AC
:101B60000009C00720B1FFE702208DF8030003E061
:101B700003208DF80300FFE7FFE7FFE79DF8030070
:101B800001B0704780B582B0019003208DF803004A
:101B9000FFF7C4FF8DF80300FFE79DF80310002056
:101BA00029B9FFE70198002818BF0120FFE7C00707
:101BB00040B1FFE7FFF7B2FF8DF80300019801384D
:101BC0000190EAE7019820B9FFE704208DF80300AF
:101BD000FFE79DF8030002B080BD000010B582B0A1
:101BE000019003208DF8030042F21004C4F20204B5
:101BF000206840F002002060019842F21401C4F213
:101C000002010860206840F0400020604FF08040F2
:101C1000FFF7B8FF8DF80300206820F00200206075
:101C200002B010BD80B5FEF7F5FA80BD42F20400A7
:101C3000C4F2020040F22311C4F26751016048F679
:101C4000AB11CCF6EF5101607047000082B00190FB
:101C5000019800688DF8000001980130019001980A
:101C600000688DF801009DF801009DF8001041EA20
:101C70000020ADF80200BDF8020002B0704700007D
:101C800082B00190ADF80210BDF80200019988629F
:101C900002B0704781B0009000984FF6FF7101606C
:101CA000009800218171009801710098417100989D
:101CB0000121C17101B0704783B0029001910020F1
:101CC000ADF8000001980068ADF80200FFE7BDF82C
:101CD0000200012861DBFFE7BDF80200C007002811
:101CE00050D0FFE7BDF800004100032000FA01F1E9
:101CF000029A136823EA0101116001998979BDF8FC
:101D0000002052009140029A136819431160BDF8F7
:101D10000010012202FA01F1029A536823EA01013C
:101D2000516001990979BDF800209140029A5368E9
:101D300019435160BDF80010490000FA01F1029A00
:101D4000936823EA010191600199C979BDF80020E7
:101D500052009140029A936819439160BDF80010B7
:101D6000490088400299CA6822EA0000C8600198C8
:101D70004079BDF80010490088400299CA681043B4
:101D8000C860FFE7BDF802004008ADF80200BDF8EA
:101D900000000130ADF8000099E703B07047000083
:101DA00082B04FF0904001908020ADF802000020FA
:101DB0008DF80100BDF802000199096901408842CF
:101DC00004D0FFE700208DF8010003E001208DF82A
:101DD0000100FFE79DF8010002B0704784B04FF0AA
:101DE000904103918DF80B0001208DF80A0000202E
:101DF000019000909DF80A109DF80B2002F0070258
:101E00009200914001919DF80B10B0EBD10F16D0CC
:101E1000FFE79DF80B0000F0070080000F2101FA9A
:101E200000F003994A6A22EA000048620398406A77
:101E300001990843009000980399486215E09DF8C5
:101E40000B0000F0070080000F2101FA00F0039959
:101E50000A6A22EA000008620398006A01990843AE
:101E60000090009803990862FFE704B070470000F3
:101E7000FFE7704780B5FFF7FBFF80BD10B582B06C
:101E80000020019001F0C0F901F09EF901F046F93F
:101E900001F00EFA01F00AF901F06EFA01F0C0FA51
:101EA00001F0F6F801F0FAFA01F02CFA00F0C6FCA5
:101EB00040F2C804C2F20004A26841F66D70C0F698
:101EC00000000A219047A26841F67560C0F6000044
:101ED0000A219047A26841F62540C0F600000A2179
:101EE0009047A26840F6B960C0F600000A2190470A
:101EF000A26842F6DD70C0F600000521904740F26E
:101F00000040C4F600000221FFF7BAFEFEF766F9B2
:101F1000FFE740F2C800C2F2000040688047F8E7DF
:101F200080B584B08DF80F000291002001900090E0
:101F3000FEF79CFD0299019AFEF708FB00909DF9BF
:101F40000F000099FEF7BCFD9DF90F00FEF76CFD38
:101F500004B080BD80B582B003208DF807009DF8E5
:101F60000700FEF7CFFD02B080BD000080B500F095
:101F700001F880BD80B540F2B200C2F200004078A6
:101F8000C00718B9FFE700F005F802E0FFF7DEFB35
:101F9000FFE780BD81B040F22000C2F20000009057
:101FA00000988078FF281FD1FFE740F2B000C2F20E
:101FB000000001780131017000781F2813DBFFE772
:101FC00040F2B000C2F200000021017040F2B20005
:101FD000C2F200000121417000990A78497841EA73
:101FE00002214180FFE7FFE701B0704780B58AB06A
:101FF00000200990089007900690059004900390A7
:1020000002900190FFF76CFB8DF803009DF8030030
:1020100030B1FFE701282AD0FFE7022831D0D6E00F
:1020200041F25400C4F202000068400AC00798B1AF
:10203000FFE741F23000C4F202000068400EC00722
:1020400050B1FFE740F20000C2F2000046F6004146
:10205000C0F2DC21016009E040F20000C2F20000A1
:1020600041F20021C0F27A010160FFE7B9E040F2DD
:102070000000C2F2000041F20021C0F27A010160CA
:10208000AFE041F20400C4F202000068C0F3004077
:10209000079041F22C00C4F2020000680021B1EB6D
:1020A000D07F50D1FFE741F20400C4F20200016882
:1020B000C1F3834109910068C0F34170089008980A
:1020C00020B9FFE709980F2807D1FFE70898099979
:1020D00001EB00100130099003E0099802300990EB
:1020E000FFE7079860B9FFE7099840F60011C0F2D2
:1020F0003D01484340F20001C2F20001086021E0C6
:1021000041F20400C4F202000068400CC00760B154
:10211000FFE7099840F60011C0F23D01484340F244
:102120000001C2F2000108600BE0099841F20021B1
:10213000C0F27A01484340F20001C2F20001086097
:10214000FFE7FFE742E041F22C00C4F20200016821
:10215000C1F3031103910168C1F3082102910068E2
:1021600000F007000190079830B9FFE740F6001033
:10217000C0F23D00049015E041F20400C4F20200F8
:102180000068400CC00730B1FFE740F60010C0F215
:102190003D00049005E041F20020C0F27A00049076
:1021A000FFE7FFE704980299A0FB0101DDF80CC0EE
:1021B000019B01229A400CFB02F20023FDF7BAFFBB
:1021C00040F20001C2F200010860FFE709E040F2BE
:1021D0000000C2F2000041F20021C0F27A01016069
:1021E000FFE741F20400C4F202000068C0F30310EC
:1021F0000690069843F2CE41C0F60001085C0590B7
:1022000040F20000C2F200000168059AD14001606E
:102210000AB080BD81B004208DF803009DF8030052
:10222000042809D1FFE74EF21000CEF20000016849
:1022300041F00401016008E04EF21000CEF200000F
:10224000016821F004010160FFE701B07047000060
:1022500083B040F20040C4F2000002904EF66020CD
:1022600001902720009001980299C8620098029975
:1022700088620298416941F00101416103B07047F1
:1022800084B040F20040C4F20000039002208DF8B8
:102290000B00002001909DF80B00ADF80200BDF886
:1022A0000200062815D8DFE800F0041408140C1406
:1022B00010000398406B01900CE00398806B019034
:1022C00008E00398C06B019004E00398006C019053
:1022D00000E0FFE7019804B07047000082B040F2D0
:1022E0000040C4F20000019000208DF803009DF82A
:1022F000030001990A6800F0030022F4407242EAE8
:102300000020086002B0704782B040F20040C4F282
:102310000000019000208DF803009DF80300019952
:102320000A6800F0070022F0700242EA001008601C
:1023300002B0704782B040F20040C4F20000019049
:1023400001208DF803009DF8030001990A6860F3ED
:1023500000020A6002B0704782B040F20040C4F24E
:10236000000001900020009000980199486202B09E
:102370007047000082B040F20040C4F200000190BB
:10238000042000900098C0430199086102B0704792
:1023900083B040F20041C4F200010291019000209C
:1023A0008DF80300ADF8000001980078ADF800004A
:1023B000BDF80000062800F2FE80DFE810F00700FC
:1023C000FC004500FC008700FC00C5000298016A83
:1023D00021F0010101620198407802990A6A00F037
:1023E000010022F0020242EA4000086201984078AF
:1023F00000F0020002990A6A22F0080242EA800014
:1024000008620198807802998A6960F301028A6102
:102410000198C07802998A6900F00F0022F0F0025A
:1024200042EA001088619DF8030002998A6900F071
:10243000030022F00C0242EA800088610298016ADF
:1024400041F001010162B7E00298016A21F0100138
:1024500001620198407802990A6A00F0010022F0B6
:10246000200242EA401008620198407800F0020021
:1024700002990A6A22F0800242EA801008620198FA
:10248000807802998A6900F0030022F4407242EADF
:10249000002088610198C07802998A6900F00F00D5
:1024A00022F4704242EA003088619DF803000299EC
:1024B0008A6900F0030022F4406242EA80208861C9
:1024C0000298016A41F01001016275E00298016A08
:1024D00021F4807101620198407802990A6A00F043
:1024E000010022F4007242EA40200862019840781C
:1024F00000F0020002990A6A22F4006242EA802097
:102500000862019880780299CA6960F30102CA6181
:102510000198C0780299CA6900F00F0022F0F00219
:1025200042EA0010C8619DF803000299CA6900F0F0
:10253000030022F00C0242EA8000C8610298016A9E
:1025400041F48071016237E00298016A21F4805100
:1025500001620198407802990A6A00F0010022F4B1
:10256000005242EA40300862019880780299CA69B4
:1025700000F0030022F4407242EA0020C861019892
:10258000C0780299CA6900F00F0022F4704242EA52
:102590000030C8619DF803000299CA6900F0030089
:1025A00022F4406242EA8020C8610298016A41F444
:1025B0008051016200E0FFE703B0704783B040F252
:1025C0000040C4F2000002900420019001208DF828
:1025D00003009DF80300012806D1FFE70198029946
:1025E000CA681043C8600BE09DF8030038B9FFE7E4
:1025F00001980299CA6822EA0000C860FFE7FFE775
:1026000003B0704782B040F20040C4F20000019075
:1026100000208DF803009DF8030001990A6800F07E
:10262000010022F0800242EAC010086002B0704748
:1026300082B040F20040C4F20000019000208DF80A
:1026400003009DF8030001994A6800F0070022F09A
:10265000700242EA0010486002B0704782B040F257
:102660000040C4F20000019000208DF803009DF8A6
:10267000030001998A6800F0010022F0800242EA1A
:10268000C010886002B0704783B00190ADF80210AE
:1026900040F22800C2F2000090F8840008282FDCE5
:1026A000FFE7019840F22801C2F2000101F118028F
:1026B00091F8843003EB430342F82300BDF8020095
:1026C00091F8843003EB430302EB8303D880BDF819
:1026D000020091F8843003EB430302EB83039880FC
:1026E00091F8840000EB400002EB800000220272AF
:1026F00091F88400013081F884008DF80B2003E00C
:1027000001208DF80B00FFE79DF80B0003B0704728
:1027100083B0019040F22800C2F2000090F88400DB
:1027200001287BDBFFE74EF21000CEF200000168CB
:1027300021F00101016000208DF80300FFE79DF802
:10274000030040F22801C2F2000191F8841088428F
:1027500063DAFFE79DF8030000EB400040F2280138
:10276000C2F2000101EB80008069019988424DD1DD
:10277000FFE740F22801C2F2000101F1180091F8D0
:102780008420013A81F8842091F8842002EB4202EF
:1027900050F822209DF8033003EB430340F8232038
:1027A00091F8842002EB420200EB8202D2889DF86D
:1027B000033003EB430300EB8303DA8091F88420BA
:1027C00002EB420200EB820292889DF8033003EB99
:1027D000430300EB83039A8091F8841001EB4101DD
:1027E00000EB8101097A9DF8032002EB420200EB25
:1027F000820001724EF21000CEF20000016841F03A
:102800000101016000208DF80B0013E0FFE79DF847
:10281000030001308DF8030091E7FFE74EF210004E
:10282000CEF20000016841F00101016001208DF845
:102830000B00FFE79DF80B0003B0704710B540F2A6
:102840002800C2F2000042F6B501C0F60001416066
:1028500042F68921C0F60001016042F28961C0F6AA
:102860000001816042F21171C0F60001C16042F6C0
:10287000F111C0F60001016142F66911C0F60001D4
:102880004161002180F88410D0F800C0D0F804E045
:102890008368C1680269406940F2C804C2F200045A
:1028A00060612261E160A360C4F804E0C4F800C084
:1028B00010BD000080B582B000208DF80700FFE752
:1028C0009DF8070040F22801C2F2000191F884103F
:1028D000884246DAFFE79DF8070000EB400040F22F
:1028E0002801C2F2000101EB8000808B90BBFFE762
:1028F0009DF8070000EB400040F22801C2F2000101
:1029000001EB800090F82000012823D0FFE79DF81C
:10291000070000EB400040F22801C2F2000118312C
:1029200001EB8000C28882809DF8070000EB400028
:1029300051F8200068B1FFE79DF8070000EB400068
:1029400040F22801C2F2000101EB8000806980475B
:10295000FFE7FFE7FFE79DF8070001308DF807006C
:10296000AEE702B080BD000083B001908DF8031087
:1029700000208DF80200FFE79DF8020040F22801D8
:10298000C2F2000191F88410884228DAFFE79DF82E
:10299000020000EB400040F22801C2F2000101EB0E
:1029A000800080690199884212D1FFE79DF80300F9
:1029B0009DF8021001EB410140F22802C2F2000230
:1029C00002EB810181F8200000208DF80B000AE065
:1029D000FFE79DF8020001308DF80200CCE70120EE
:1029E0008DF80B00FFE79DF80B0003B07047000067
:1029F00083B00190ADF8021000208DF80100FFE7D0
:102A00009DF8010040F22801C2F2000191F8841003
:102A1000884231DAFFE79DF8010000EB400040F208
:102A20002801C2F2000101EB80008069019988420F
:102A30001BD1FFE7BDF802009DF8011001EB410139
:102A400040F22802C2F20002183202EB81018880B3
:102A5000BDF802009DF8011001EB410102EB81017C
:102A6000C88000208DF80B000AE0FFE79DF8010008
:102A700001308DF80100C3E701208DF80B00FFE75E
:102A80009DF80B0003B0704781B000208DF8030063
:102A9000FFE79DF8030040F22801C2F2000191F81F
:102AA0008410884223DAFFE79DF8030000EB400022
:102AB00040F22801C2F2000101EB8000808B012866
:102AC0000EDBFFE79DF8030000EB400040F2280119
:102AD000C2F2000101EB8000818B01398183FFE7A5
:102AE000FFE79DF8030001308DF80300D1E701B046
:102AF0007047000080B582B001901420ADF802004C
:102B0000FFE7BDF80200411EADF8021068B1FFE713
:102B1000FFE700F04FF808B9FFE7FAE70198411C1A
:102B20000191007800F00CF8EBE702B080BD0000E6
:102B300081B000900098406880B201B070470000FA
:102B400082B043F60001C4F201010191ADF8020028
:102B5000BDF802006FF35F200199486002B0704732
:102B600082B0019001208DF803009DF803000199C7
:102B7000CA6800F0010022F4005242EA4030C86006
:102B800002B0704782B001900520C0F20C000090A6
:102B90009DF80000C00628B1FFE701980068019881
:102BA000406804E00098C04301990860FFE702B064
:102BB0007047000083B043F60000C4F201000190AA
:102BC00080200090019800680099084204D0FFE737
:102BD00001208DF80B0003E000208DF80B00FFE7CB
:102BE0009DF80B0003B0704782B0019000208DF873
:102BF00003009DF8030058B9FFE70198416921F4EB
:102C0000807141610198416921F40071416132E0B4
:102C10009DF8030001280BD1FFE70198416941F4B9
:102C2000807141610198416921F40071416121E0A5
:102C30009DF8030002280BD1FFE70198416921F4B8
:102C4000807141610198416941F40071416110E076
:102C50009DF8030003280BD1FFE70198416941F477
:102C6000807141610198416941F400714161FFE760
:102C7000FFE7FFE7FFE702B07047000080B58AB0CA
:102C800009904FF4E130089000208DF81F008DF876
:102C90001E0002A8FEF740FA099843F60001C4F2AC
:102CA0000101884203D1FFE70498019002E00598F2
:102CB0000190FFE7019800EB800040000899B0FB0D
:102CC000F1F0009000984CF6CD41CCF6CC41A0FB41
:102CD0000112D10801EB8101A0EB410004280AD8C0
:102CE000FFE700984CF6CD41CCF6CC41A0FB0101AA
:102CF000C80800900BE000984CF6CD41CCF6CC41D2
:102D0000A0FB0101012000EBD1000090FFE7BDF81E
:102D1000000009998A684FF6FF739A43104488604F
:102D20009DF81F000999CA6800F0010022F4805242
:102D300042EA0030C8609DF81E0009990A6900F057
:102D4000030022F4405242EA003008610AB080BD1C
:102D500083B002900520C0F20C00019001208DF894
:102D600003009DF8030001280CD1FFE7019800F053
:102D70001F01012202FA01F1029A000C13581943B3
:102D800011500CE0019800F01F01012202FA01F13C
:102D9000029A000C135823EA01011150FFE703B017
:102DA0007047000084B002902020019000208DF830
:102DB0000300019801285FD0FFE7022855D0FFE704
:102DC000042852D0FFE7082837D0FFE7102845D065
:102DD000FFE720282AD0FFE7402820D0FFE78028FF
:102DE00016D0FFE7B0F5807F0BD0FFE7B0F5007F8E
:102DF00049D1FFE702984069C0F380208DF80300B5
:102E000045E002980069C0F380108DF803003EE0B1
:102E10000298C068C0F3C0108DF8030037E0029834
:102E2000C068C0F380108DF8030030E00298C068DD
:102E3000C0F340108DF8030029E00298C0684109F2
:102E40000120C90729B9FFE70298406900F0010095
:102E5000FFE700F001008DF8030018E00298C06859
:102E6000C0F300108DF8030011E00298406900F0F3
:102E700001008DF803000AE00298C068C0F300204A
:102E80008DF8030003E000208DF80300FFE79DF8B4
:102E90000300012804D0FFE700208DF80F000DE0AB
:102EA000029800680199084204D0FFE701208DF8DC
:102EB0000F0003E000208DF80F00FFE79DF80F00E2
:102EC00004B0704782B0019000208DF803009DF897
:102ED000030058B9FFE70198C16821F40071C1608F
:102EE0000198C16821F48061C16021E09DF8030070
:102EF00001280BD1FFE70198C16821F40071C1607E
:102F00000198C16841F48061C16010E09DF8030040
:102F100002280BD1FFE70198C16841F40071C1603C
:102F20000198C16841F48061C160FFE7FFE7FFE7F6
:102F300002B0704782B0019001208DF803009DF827
:102F400003000199CA6800F0010022F0040242EA7D
:102F50008000C86002B070478BB00020ADF802005E
:102F600040F2B200C2F200008079C00788B1FFE7EA
:102F700040F2B200C2F200004079C00748B9FFE752
:102F800040F2B200C2F200000021817101214171C2
:102F900021E040F2B200C2F20000407AC00738B12E
:102FA000FFE740F2B200C2F200000021417211E0DE
:102FB00040F2B200C2F200004079C00748B9FFE712
:102FC00040F2B200C2F20000407AC00708B9FFE741
:102FD000FFE7FFE7FFE70BB07047000080B5FFF7A2
:102FE000BBFF80BD82B043F60000C4F20100019037
:102FF00001208DF803009DF803000199CA6800F0D4
:10300000010022F0080242EAC000C86002B0704726
:1030100043F20000C4F200004AF6AA2101607047A2
:1030200081B000208DF803009DF8030043F20401F5
:10303000C4F200010A6860F302020A6001B070473E
:1030400081B001208DF803009DF8030038B9FFE737
:1030500043F20000C4F200000021016007E043F2E7
:103060000000C4F2000045F255510160FFE701B0D5
:103070007047000081B00920ADF80200BDF80200E1
:1030800043F20801C4F20001086001B0704700007B
:1030900080B5FDF741FFFDF74BFFFDF75DFFFDF745
:1030A00069FFFDF77BFFFDF72DFF80BD2DE9F043A4
:1030B00083B001AC2046FEF7EDFD4FF020084FF045
:1030C00090402021FEF7DCFD40F20049C4F60009E3
:1030D000022748460221FEF7D3FD8DF80B7000262B
:1030E0008DF8086001258DF80A50CDF804808DF820
:1030F00009604FF090402146FEF7DEFD8DF80B7021
:103100008DF808608DF80A5001978DF809604846DF
:103110002146FEF7D1FD03B0BDE8F08380B5FEF790
:1031200019FFFDF79BFC0021FDF7DEF901466FF06A
:103130000B00FDF7A3FCFDF791FC0021FDF7D4F98E
:1031400001466FF00A00FDF799FCFDF787FC0021AE
:10315000FDF7CAF901466FF00900FDF78FFCFDF796
:103160007DFC0021FDF7C0F901466FF00400FDF77A
:1031700085FCFDF773FC0021FDF7B6F901466FF001
:103180000300FDF77BFCFDF769FC0021FDF7ACF9BE
:1031900001466FF00100FDF771FCFDF75FFC0F21A8
:1031A000FDF7A2F901464FF0FF30FDF767FC102054
:1031B0000E21FEF7B5FE1B200021FEF7B1FE1C20FC
:1031C0000021FEF7ADFE80BD80B50620C0F21400E0
:1031D000FEF7F4F81120C0F21400FEF7EFF8122009
:1031E000C0F21400FEF7EAF80E20C0F21800FEF755
:1031F000E5F80120C0F21C00FEF7E0F81120C0F253
:103200001C00FEF7DBF880BD80B5FEF7F7F942F24F
:103210000000C4F2020040F2531101600420FDF7E7
:1032200029FFFFE70120C0F22400FEF7A7F80128DC
:1032300001D0FFE7F6E70020FDF71CFFFFE70120C4
:10324000FEF79CF8012801D0FFE7F8E7FEF7E2F867
:103250000220FDF70FFFFFE71920FEF78FF8012886
:1032600001D0FFE7F8E7FDF7ADFEFDF7D3FEFDF770
:10327000BDFE0120FDF7E2FEFEF70EFAFFE7FEF7C6
:103280002FFA022801D0FFE7F9E70020FDF7D6FE6C
:10329000FEF7ACFE80BD000080B500F001F880BDF7
:1032A00040F2C400C2F200000168013101607047C1
:1032B00010B586B00024009401A8FDF72DFF0298F8
:1032C0000090FEF7A7FF009844F6D351C1F26201C7
:1032D000A0FB01014FF0FF3000EB91104EF2140102
:1032E000CEF2000108604EF21800CEF20000046039
:1032F0004EF21000CEF20000016841F003010160BF
:1033000006B010BD70B584B002AC2046FEF7C2FC1A
:103310000720FEF763FD8020029002268DF80E60E4
:1033200000258DF80C508DF80D508DF80F604FF082
:1033300090402146FEF7C0FCFEF7E6FFFEF7CEFF09
:10334000FFF760F9FEF784FFFFF788F9FFF770F9E0
:103350008DF8046001208DF8060003208DF805002B
:103360008DF8075001A8FFF713F8FEF7E3FFFFF70A
:1033700025F904B070BD0000F0B583B00E20C0F296
:103380001800FEF71BF81120C0F21400FEF716F823
:1033900001AC2046FEF77EFC0920FEF71FFD01254B
:1033A0008DF80B5000268DF8086002278DF80A7002
:1033B0004FF4007001908DF809604FF09040214665
:1033C000FEF77AFC0A20FEF709FD8DF80B508DF808
:1033D00008608DF80A704FF4806001908DF80960E4
:1033E0004FF090402146FEF767FC43F60004C4F21C
:1033F00001042046FFF742FCFFF7F4FD2046FFF7EB
:1034000099FD2046FFF75EFD2046FFF7EDFB2046C5
:10341000FFF79EFC2046FFF7A3FB03B0F0BD0000C2
:1034200010B582B01120C0F21C00FDF7C7FF1120BB
:10343000C0F21400FDF7C2FF6C462046FEF72AFCDE
:103440000320FEF7CBFC01208DF8070000208DF84B
:10345000040002218DF80610082100918DF8050066
:103460004FF090402146FEF727FC44F20044C4F29E
:1034700000042046FFF702FC2046FFF75BFD2046D4
:10348000FFF720FD2046FFF7AFFB2046FFF760FC6B
:103490002046FFF765FB02B010BD000080B5FFF7C6
:1034A000CFFDFFF7BDFDFFF7E5FDFFF7B1FD80BDE7
:1034B00002E008C8121F08C1002AFAD170477047FD
:1034C000002001E001C1121F002AFBD1704700005B
:1034D00000000000000001020304060708090000C4
:1034E00000000102030402040608020C0810000098
:1034F000103500080000002008000000B03400086B
:103500001835000808000020E8040000C034000856
:0835100000127A000000000027
:04000005080000CD22
:00000001FF
